{
	"ERC3643WhitelistBlacklist.sol": {
		"ERC3643WhitelistBlacklist": {
			"abi": [
				{
					"inputs": [],
					"stateMutability": "nonpayable",
					"type": "constructor"
				},
				{
					"anonymous": false,
					"inputs": [
						{
							"indexed": true,
							"internalType": "address",
							"name": "account",
							"type": "address"
						}
					],
					"name": "AddedToBlacklist",
					"type": "event"
				},
				{
					"anonymous": false,
					"inputs": [
						{
							"indexed": true,
							"internalType": "address",
							"name": "account",
							"type": "address"
						}
					],
					"name": "AddedToWhitelist",
					"type": "event"
				},
				{
					"anonymous": false,
					"inputs": [
						{
							"indexed": true,
							"internalType": "address",
							"name": "account",
							"type": "address"
						}
					],
					"name": "RemovedFromBlacklist",
					"type": "event"
				},
				{
					"anonymous": false,
					"inputs": [
						{
							"indexed": true,
							"internalType": "address",
							"name": "account",
							"type": "address"
						}
					],
					"name": "RemovedFromWhitelist",
					"type": "event"
				},
				{
					"inputs": [
						{
							"internalType": "address",
							"name": "account",
							"type": "address"
						}
					],
					"name": "addToBlacklist",
					"outputs": [],
					"stateMutability": "nonpayable",
					"type": "function"
				},
				{
					"inputs": [
						{
							"internalType": "address",
							"name": "account",
							"type": "address"
						}
					],
					"name": "addToWhitelist",
					"outputs": [],
					"stateMutability": "nonpayable",
					"type": "function"
				},
				{
					"inputs": [],
					"name": "admin",
					"outputs": [
						{
							"internalType": "address",
							"name": "",
							"type": "address"
						}
					],
					"stateMutability": "view",
					"type": "function"
				},
				{
					"inputs": [
						{
							"internalType": "address",
							"name": "account",
							"type": "address"
						}
					],
					"name": "isBlacklisted",
					"outputs": [
						{
							"internalType": "bool",
							"name": "",
							"type": "bool"
						}
					],
					"stateMutability": "view",
					"type": "function"
				},
				{
					"inputs": [
						{
							"internalType": "address",
							"name": "account",
							"type": "address"
						}
					],
					"name": "isWhitelisted",
					"outputs": [
						{
							"internalType": "bool",
							"name": "",
							"type": "bool"
						}
					],
					"stateMutability": "view",
					"type": "function"
				},
				{
					"inputs": [
						{
							"internalType": "address",
							"name": "account",
							"type": "address"
						}
					],
					"name": "removeFromBlacklist",
					"outputs": [],
					"stateMutability": "nonpayable",
					"type": "function"
				},
				{
					"inputs": [
						{
							"internalType": "address",
							"name": "account",
							"type": "address"
						}
					],
					"name": "removeFromWhitelist",
					"outputs": [],
					"stateMutability": "nonpayable",
					"type": "function"
				},
				{
					"inputs": [
						{
							"internalType": "address",
							"name": "to",
							"type": "address"
						}
					],
					"name": "transfer",
					"outputs": [],
					"stateMutability": "nonpayable",
					"type": "function"
				}
			],
			"devdoc": {
				"kind": "dev",
				"methods": {},
				"version": 1
			},
			"evm": {
				"assembly": "    /* \"ERC3643WhitelistBlacklist.sol\":61:2743  contract ERC3643WhitelistBlacklist {... */\n  mstore(0x40, 0x80)\n    /* \"ERC3643WhitelistBlacklist.sol\":545:646  constructor() {... */\n  callvalue\n  dup1\n  iszero\n  tag_1\n  jumpi\n  0x00\n  dup1\n  revert\ntag_1:\n  pop\n    /* \"ERC3643WhitelistBlacklist.sol\":578:588  msg.sender */\n  caller\n    /* \"ERC3643WhitelistBlacklist.sol\":570:575  admin */\n  0x00\n  dup1\n    /* \"ERC3643WhitelistBlacklist.sol\":570:588  admin = msg.sender */\n  0x0100\n  exp\n  dup2\n  sload\n  dup2\n  0xffffffffffffffffffffffffffffffffffffffff\n  mul\n  not\n  and\n  swap1\n  dup4\n  0xffffffffffffffffffffffffffffffffffffffff\n  and\n  mul\n  or\n  swap1\n  sstore\n  pop\n    /* \"ERC3643WhitelistBlacklist.sol\":61:2743  contract ERC3643WhitelistBlacklist {... */\n  dataSize(sub_0)\n  dup1\n  dataOffset(sub_0)\n  0x00\n  codecopy\n  0x00\n  return\nstop\n\nsub_0: assembly {\n        /* \"ERC3643WhitelistBlacklist.sol\":61:2743  contract ERC3643WhitelistBlacklist {... */\n      mstore(0x40, 0x80)\n      callvalue\n      dup1\n      iszero\n      tag_1\n      jumpi\n      0x00\n      dup1\n      revert\n    tag_1:\n      pop\n      jumpi(tag_2, lt(calldatasize, 0x04))\n      shr(0xe0, calldataload(0x00))\n      dup1\n      0x8ab1d681\n      gt\n      tag_11\n      jumpi\n      dup1\n      0x8ab1d681\n      eq\n      tag_7\n      jumpi\n      dup1\n      0xe43252d7\n      eq\n      tag_8\n      jumpi\n      dup1\n      0xf851a440\n      eq\n      tag_9\n      jumpi\n      dup1\n      0xfe575a87\n      eq\n      tag_10\n      jumpi\n      jump(tag_2)\n    tag_11:\n      dup1\n      0x1a695230\n      eq\n      tag_3\n      jumpi\n      dup1\n      0x3af32abf\n      eq\n      tag_4\n      jumpi\n      dup1\n      0x44337ea1\n      eq\n      tag_5\n      jumpi\n      dup1\n      0x537df3b6\n      eq\n      tag_6\n      jumpi\n    tag_2:\n      0x00\n      dup1\n      revert\n        /* \"ERC3643WhitelistBlacklist.sol\":2438:2740  function transfer(address to) external notBlacklisted(msg.sender) notBlacklisted(to) {... */\n    tag_3:\n      tag_12\n      0x04\n      dup1\n      calldatasize\n      sub\n      dup2\n      add\n      swap1\n      tag_13\n      swap2\n      swap1\n      tag_14\n      jump\t// in\n    tag_13:\n      tag_15\n      jump\t// in\n    tag_12:\n      stop\n        /* \"ERC3643WhitelistBlacklist.sol\":1592:1703  function isWhitelisted(address account) public view returns (bool) {... */\n    tag_4:\n      tag_16\n      0x04\n      dup1\n      calldatasize\n      sub\n      dup2\n      add\n      swap1\n      tag_17\n      swap2\n      swap1\n      tag_14\n      jump\t// in\n    tag_17:\n      tag_18\n      jump\t// in\n    tag_16:\n      mload(0x40)\n      tag_19\n      swap2\n      swap1\n      tag_20\n      jump\t// in\n    tag_19:\n      mload(0x40)\n      dup1\n      swap2\n      sub\n      swap1\n      return\n        /* \"ERC3643WhitelistBlacklist.sol\":1749:2031  function addToBlacklist(address account) external onlyAdmin {... */\n    tag_5:\n      tag_21\n      0x04\n      dup1\n      calldatasize\n      sub\n      dup2\n      add\n      swap1\n      tag_22\n      swap2\n      swap1\n      tag_14\n      jump\t// in\n    tag_22:\n      tag_23\n      jump\t// in\n    tag_21:\n      stop\n        /* \"ERC3643WhitelistBlacklist.sol\":2039:2260  function removeFromBlacklist(address account) external onlyAdmin {... */\n    tag_6:\n      tag_24\n      0x04\n      dup1\n      calldatasize\n      sub\n      dup2\n      add\n      swap1\n      tag_25\n      swap2\n      swap1\n      tag_14\n      jump\t// in\n    tag_25:\n      tag_26\n      jump\t// in\n    tag_24:\n      stop\n        /* \"ERC3643WhitelistBlacklist.sol\":1363:1584  function removeFromWhitelist(address account) external onlyAdmin {... */\n    tag_7:\n      tag_27\n      0x04\n      dup1\n      calldatasize\n      sub\n      dup2\n      add\n      swap1\n      tag_28\n      swap2\n      swap1\n      tag_14\n      jump\t// in\n    tag_28:\n      tag_29\n      jump\t// in\n    tag_27:\n      stop\n        /* \"ERC3643WhitelistBlacklist.sol\":1073:1355  function addToWhitelist(address account) external onlyAdmin {... */\n    tag_8:\n      tag_30\n      0x04\n      dup1\n      calldatasize\n      sub\n      dup2\n      add\n      swap1\n      tag_31\n      swap2\n      swap1\n      tag_14\n      jump\t// in\n    tag_31:\n      tag_32\n      jump\t// in\n    tag_30:\n      stop\n        /* \"ERC3643WhitelistBlacklist.sol\":375:395  address public admin */\n    tag_9:\n      tag_33\n      tag_34\n      jump\t// in\n    tag_33:\n      mload(0x40)\n      tag_35\n      swap2\n      swap1\n      tag_36\n      jump\t// in\n    tag_35:\n      mload(0x40)\n      dup1\n      swap2\n      sub\n      swap1\n      return\n        /* \"ERC3643WhitelistBlacklist.sol\":2268:2379  function isBlacklisted(address account) public view returns (bool) {... */\n    tag_10:\n      tag_37\n      0x04\n      dup1\n      calldatasize\n      sub\n      dup2\n      add\n      swap1\n      tag_38\n      swap2\n      swap1\n      tag_14\n      jump\t// in\n    tag_38:\n      tag_39\n      jump\t// in\n    tag_37:\n      mload(0x40)\n      tag_40\n      swap2\n      swap1\n      tag_20\n      jump\t// in\n    tag_40:\n      mload(0x40)\n      dup1\n      swap2\n      sub\n      swap1\n      return\n        /* \"ERC3643WhitelistBlacklist.sol\":2438:2740  function transfer(address to) external notBlacklisted(msg.sender) notBlacklisted(to) {... */\n    tag_15:\n        /* \"ERC3643WhitelistBlacklist.sol\":2492:2502  msg.sender */\n      caller\n        /* \"ERC3643WhitelistBlacklist.sol\":961:970  blacklist */\n      0x02\n        /* \"ERC3643WhitelistBlacklist.sol\":961:979  blacklist[account] */\n      0x00\n        /* \"ERC3643WhitelistBlacklist.sol\":971:978  account */\n      dup3\n        /* \"ERC3643WhitelistBlacklist.sol\":961:979  blacklist[account] */\n      0xffffffffffffffffffffffffffffffffffffffff\n      and\n      0xffffffffffffffffffffffffffffffffffffffff\n      and\n      dup2\n      mstore\n      0x20\n      add\n      swap1\n      dup2\n      mstore\n      0x20\n      add\n      0x00\n      keccak256\n      0x00\n      swap1\n      sload\n      swap1\n      0x0100\n      exp\n      swap1\n      div\n      0xff\n      and\n        /* \"ERC3643WhitelistBlacklist.sol\":960:979  !blacklist[account] */\n      iszero\n        /* \"ERC3643WhitelistBlacklist.sol\":952:1006  require(!blacklist[account], \"Address is blacklisted\") */\n      tag_42\n      jumpi\n      mload(0x40)\n      0x08c379a000000000000000000000000000000000000000000000000000000000\n      dup2\n      mstore\n      0x04\n      add\n      tag_43\n      swap1\n      tag_44\n      jump\t// in\n    tag_43:\n      mload(0x40)\n      dup1\n      swap2\n      sub\n      swap1\n      revert\n    tag_42:\n        /* \"ERC3643WhitelistBlacklist.sol\":2519:2521  to */\n      dup2\n        /* \"ERC3643WhitelistBlacklist.sol\":961:970  blacklist */\n      0x02\n        /* \"ERC3643WhitelistBlacklist.sol\":961:979  blacklist[account] */\n      0x00\n        /* \"ERC3643WhitelistBlacklist.sol\":971:978  account */\n      dup3\n        /* \"ERC3643WhitelistBlacklist.sol\":961:979  blacklist[account] */\n      0xffffffffffffffffffffffffffffffffffffffff\n      and\n      0xffffffffffffffffffffffffffffffffffffffff\n      and\n      dup2\n      mstore\n      0x20\n      add\n      swap1\n      dup2\n      mstore\n      0x20\n      add\n      0x00\n      keccak256\n      0x00\n      swap1\n      sload\n      swap1\n      0x0100\n      exp\n      swap1\n      div\n      0xff\n      and\n        /* \"ERC3643WhitelistBlacklist.sol\":960:979  !blacklist[account] */\n      iszero\n        /* \"ERC3643WhitelistBlacklist.sol\":952:1006  require(!blacklist[account], \"Address is blacklisted\") */\n      tag_46\n      jumpi\n      mload(0x40)\n      0x08c379a000000000000000000000000000000000000000000000000000000000\n      dup2\n      mstore\n      0x04\n      add\n      tag_47\n      swap1\n      tag_44\n      jump\t// in\n    tag_47:\n      mload(0x40)\n      dup1\n      swap2\n      sub\n      swap1\n      revert\n    tag_46:\n        /* \"ERC3643WhitelistBlacklist.sol\":2542:2551  whitelist */\n      0x01\n        /* \"ERC3643WhitelistBlacklist.sol\":2542:2563  whitelist[msg.sender] */\n      0x00\n        /* \"ERC3643WhitelistBlacklist.sol\":2552:2562  msg.sender */\n      caller\n        /* \"ERC3643WhitelistBlacklist.sol\":2542:2563  whitelist[msg.sender] */\n      0xffffffffffffffffffffffffffffffffffffffff\n      and\n      0xffffffffffffffffffffffffffffffffffffffff\n      and\n      dup2\n      mstore\n      0x20\n      add\n      swap1\n      dup2\n      mstore\n      0x20\n      add\n      0x00\n      keccak256\n      0x00\n      swap1\n      sload\n      swap1\n      0x0100\n      exp\n      swap1\n      div\n      0xff\n      and\n        /* \"ERC3643WhitelistBlacklist.sol\":2534:2593  require(whitelist[msg.sender], \"Sender is not whitelisted\") */\n      tag_49\n      jumpi\n      mload(0x40)\n      0x08c379a000000000000000000000000000000000000000000000000000000000\n      dup2\n      mstore\n      0x04\n      add\n      tag_50\n      swap1\n      tag_51\n      jump\t// in\n    tag_50:\n      mload(0x40)\n      dup1\n      swap2\n      sub\n      swap1\n      revert\n    tag_49:\n        /* \"ERC3643WhitelistBlacklist.sol\":2612:2621  whitelist */\n      0x01\n        /* \"ERC3643WhitelistBlacklist.sol\":2612:2625  whitelist[to] */\n      0x00\n        /* \"ERC3643WhitelistBlacklist.sol\":2622:2624  to */\n      dup5\n        /* \"ERC3643WhitelistBlacklist.sol\":2612:2625  whitelist[to] */\n      0xffffffffffffffffffffffffffffffffffffffff\n      and\n      0xffffffffffffffffffffffffffffffffffffffff\n      and\n      dup2\n      mstore\n      0x20\n      add\n      swap1\n      dup2\n      mstore\n      0x20\n      add\n      0x00\n      keccak256\n      0x00\n      swap1\n      sload\n      swap1\n      0x0100\n      exp\n      swap1\n      div\n      0xff\n      and\n        /* \"ERC3643WhitelistBlacklist.sol\":2604:2658  require(whitelist[to], \"Recipient is not whitelisted\") */\n      tag_52\n      jumpi\n      mload(0x40)\n      0x08c379a000000000000000000000000000000000000000000000000000000000\n      dup2\n      mstore\n      0x04\n      add\n      tag_53\n      swap1\n      tag_54\n      jump\t// in\n    tag_53:\n      mload(0x40)\n      dup1\n      swap2\n      sub\n      swap1\n      revert\n    tag_52:\n        /* \"ERC3643WhitelistBlacklist.sol\":1017:1018  _ */\n      pop\n        /* \"ERC3643WhitelistBlacklist.sol\":2438:2740  function transfer(address to) external notBlacklisted(msg.sender) notBlacklisted(to) {... */\n      pop\n      pop\n      jump\t// out\n        /* \"ERC3643WhitelistBlacklist.sol\":1592:1703  function isWhitelisted(address account) public view returns (bool) {... */\n    tag_18:\n        /* \"ERC3643WhitelistBlacklist.sol\":1653:1657  bool */\n      0x00\n        /* \"ERC3643WhitelistBlacklist.sol\":1677:1686  whitelist */\n      0x01\n        /* \"ERC3643WhitelistBlacklist.sol\":1677:1695  whitelist[account] */\n      0x00\n        /* \"ERC3643WhitelistBlacklist.sol\":1687:1694  account */\n      dup4\n        /* \"ERC3643WhitelistBlacklist.sol\":1677:1695  whitelist[account] */\n      0xffffffffffffffffffffffffffffffffffffffff\n      and\n      0xffffffffffffffffffffffffffffffffffffffff\n      and\n      dup2\n      mstore\n      0x20\n      add\n      swap1\n      dup2\n      mstore\n      0x20\n      add\n      0x00\n      keccak256\n      0x00\n      swap1\n      sload\n      swap1\n      0x0100\n      exp\n      swap1\n      div\n      0xff\n      and\n        /* \"ERC3643WhitelistBlacklist.sol\":1670:1695  return whitelist[account] */\n      swap1\n      pop\n        /* \"ERC3643WhitelistBlacklist.sol\":1592:1703  function isWhitelisted(address account) public view returns (bool) {... */\n      swap2\n      swap1\n      pop\n      jump\t// out\n        /* \"ERC3643WhitelistBlacklist.sol\":1749:2031  function addToBlacklist(address account) external onlyAdmin {... */\n    tag_23:\n        /* \"ERC3643WhitelistBlacklist.sol\":766:771  admin */\n      0x00\n      dup1\n      sload\n      swap1\n      0x0100\n      exp\n      swap1\n      div\n      0xffffffffffffffffffffffffffffffffffffffff\n      and\n        /* \"ERC3643WhitelistBlacklist.sol\":752:771  msg.sender == admin */\n      0xffffffffffffffffffffffffffffffffffffffff\n      and\n        /* \"ERC3643WhitelistBlacklist.sol\":752:762  msg.sender */\n      caller\n        /* \"ERC3643WhitelistBlacklist.sol\":752:771  msg.sender == admin */\n      0xffffffffffffffffffffffffffffffffffffffff\n      and\n      eq\n        /* \"ERC3643WhitelistBlacklist.sol\":744:810  require(msg.sender == admin, \"Only admin can perform this action\") */\n      tag_57\n      jumpi\n      mload(0x40)\n      0x08c379a000000000000000000000000000000000000000000000000000000000\n      dup2\n      mstore\n      0x04\n      add\n      tag_58\n      swap1\n      tag_59\n      jump\t// in\n    tag_58:\n      mload(0x40)\n      dup1\n      swap2\n      sub\n      swap1\n      revert\n    tag_57:\n        /* \"ERC3643WhitelistBlacklist.sol\":1829:1838  blacklist */\n      0x02\n        /* \"ERC3643WhitelistBlacklist.sol\":1829:1847  blacklist[account] */\n      0x00\n        /* \"ERC3643WhitelistBlacklist.sol\":1839:1846  account */\n      dup3\n        /* \"ERC3643WhitelistBlacklist.sol\":1829:1847  blacklist[account] */\n      0xffffffffffffffffffffffffffffffffffffffff\n      and\n      0xffffffffffffffffffffffffffffffffffffffff\n      and\n      dup2\n      mstore\n      0x20\n      add\n      swap1\n      dup2\n      mstore\n      0x20\n      add\n      0x00\n      keccak256\n      0x00\n      swap1\n      sload\n      swap1\n      0x0100\n      exp\n      swap1\n      div\n      0xff\n      and\n        /* \"ERC3643WhitelistBlacklist.sol\":1828:1847  !blacklist[account] */\n      iszero\n        /* \"ERC3643WhitelistBlacklist.sol\":1820:1880  require(!blacklist[account], \"Address already in blacklist\") */\n      tag_61\n      jumpi\n      mload(0x40)\n      0x08c379a000000000000000000000000000000000000000000000000000000000\n      dup2\n      mstore\n      0x04\n      add\n      tag_62\n      swap1\n      tag_63\n      jump\t// in\n    tag_62:\n      mload(0x40)\n      dup1\n      swap2\n      sub\n      swap1\n      revert\n    tag_61:\n        /* \"ERC3643WhitelistBlacklist.sol\":1900:1909  whitelist */\n      0x01\n        /* \"ERC3643WhitelistBlacklist.sol\":1900:1918  whitelist[account] */\n      0x00\n        /* \"ERC3643WhitelistBlacklist.sol\":1910:1917  account */\n      dup3\n        /* \"ERC3643WhitelistBlacklist.sol\":1900:1918  whitelist[account] */\n      0xffffffffffffffffffffffffffffffffffffffff\n      and\n      0xffffffffffffffffffffffffffffffffffffffff\n      and\n      dup2\n      mstore\n      0x20\n      add\n      swap1\n      dup2\n      mstore\n      0x20\n      add\n      0x00\n      keccak256\n      0x00\n      swap1\n      sload\n      swap1\n      0x0100\n      exp\n      swap1\n      div\n      0xff\n      and\n        /* \"ERC3643WhitelistBlacklist.sol\":1899:1918  !whitelist[account] */\n      iszero\n        /* \"ERC3643WhitelistBlacklist.sol\":1891:1946  require(!whitelist[account], \"Address is in whitelist\") */\n      tag_64\n      jumpi\n      mload(0x40)\n      0x08c379a000000000000000000000000000000000000000000000000000000000\n      dup2\n      mstore\n      0x04\n      add\n      tag_65\n      swap1\n      tag_66\n      jump\t// in\n    tag_65:\n      mload(0x40)\n      dup1\n      swap2\n      sub\n      swap1\n      revert\n    tag_64:\n        /* \"ERC3643WhitelistBlacklist.sol\":1978:1982  true */\n      0x01\n        /* \"ERC3643WhitelistBlacklist.sol\":1957:1966  blacklist */\n      0x02\n        /* \"ERC3643WhitelistBlacklist.sol\":1957:1975  blacklist[account] */\n      0x00\n        /* \"ERC3643WhitelistBlacklist.sol\":1967:1974  account */\n      dup4\n        /* \"ERC3643WhitelistBlacklist.sol\":1957:1975  blacklist[account] */\n      0xffffffffffffffffffffffffffffffffffffffff\n      and\n      0xffffffffffffffffffffffffffffffffffffffff\n      and\n      dup2\n      mstore\n      0x20\n      add\n      swap1\n      dup2\n      mstore\n      0x20\n      add\n      0x00\n      keccak256\n      0x00\n        /* \"ERC3643WhitelistBlacklist.sol\":1957:1982  blacklist[account] = true */\n      0x0100\n      exp\n      dup2\n      sload\n      dup2\n      0xff\n      mul\n      not\n      and\n      swap1\n      dup4\n      iszero\n      iszero\n      mul\n      or\n      swap1\n      sstore\n      pop\n        /* \"ERC3643WhitelistBlacklist.sol\":2015:2022  account */\n      dup1\n        /* \"ERC3643WhitelistBlacklist.sol\":1998:2023  AddedToBlacklist(account) */\n      0xffffffffffffffffffffffffffffffffffffffff\n      and\n      0xf9b68063b051b82957fa193585681240904fed808db8b30fc5a2d2202c6ed627\n      mload(0x40)\n      mload(0x40)\n      dup1\n      swap2\n      sub\n      swap1\n      log2\n        /* \"ERC3643WhitelistBlacklist.sol\":1749:2031  function addToBlacklist(address account) external onlyAdmin {... */\n      pop\n      jump\t// out\n        /* \"ERC3643WhitelistBlacklist.sol\":2039:2260  function removeFromBlacklist(address account) external onlyAdmin {... */\n    tag_26:\n        /* \"ERC3643WhitelistBlacklist.sol\":766:771  admin */\n      0x00\n      dup1\n      sload\n      swap1\n      0x0100\n      exp\n      swap1\n      div\n      0xffffffffffffffffffffffffffffffffffffffff\n      and\n        /* \"ERC3643WhitelistBlacklist.sol\":752:771  msg.sender == admin */\n      0xffffffffffffffffffffffffffffffffffffffff\n      and\n        /* \"ERC3643WhitelistBlacklist.sol\":752:762  msg.sender */\n      caller\n        /* \"ERC3643WhitelistBlacklist.sol\":752:771  msg.sender == admin */\n      0xffffffffffffffffffffffffffffffffffffffff\n      and\n      eq\n        /* \"ERC3643WhitelistBlacklist.sol\":744:810  require(msg.sender == admin, \"Only admin can perform this action\") */\n      tag_68\n      jumpi\n      mload(0x40)\n      0x08c379a000000000000000000000000000000000000000000000000000000000\n      dup2\n      mstore\n      0x04\n      add\n      tag_69\n      swap1\n      tag_59\n      jump\t// in\n    tag_69:\n      mload(0x40)\n      dup1\n      swap2\n      sub\n      swap1\n      revert\n    tag_68:\n        /* \"ERC3643WhitelistBlacklist.sol\":2123:2132  blacklist */\n      0x02\n        /* \"ERC3643WhitelistBlacklist.sol\":2123:2141  blacklist[account] */\n      0x00\n        /* \"ERC3643WhitelistBlacklist.sol\":2133:2140  account */\n      dup3\n        /* \"ERC3643WhitelistBlacklist.sol\":2123:2141  blacklist[account] */\n      0xffffffffffffffffffffffffffffffffffffffff\n      and\n      0xffffffffffffffffffffffffffffffffffffffff\n      and\n      dup2\n      mstore\n      0x20\n      add\n      swap1\n      dup2\n      mstore\n      0x20\n      add\n      0x00\n      keccak256\n      0x00\n      swap1\n      sload\n      swap1\n      0x0100\n      exp\n      swap1\n      div\n      0xff\n      and\n        /* \"ERC3643WhitelistBlacklist.sol\":2115:2170  require(blacklist[account], \"Address not in blacklist\") */\n      tag_71\n      jumpi\n      mload(0x40)\n      0x08c379a000000000000000000000000000000000000000000000000000000000\n      dup2\n      mstore\n      0x04\n      add\n      tag_72\n      swap1\n      tag_73\n      jump\t// in\n    tag_72:\n      mload(0x40)\n      dup1\n      swap2\n      sub\n      swap1\n      revert\n    tag_71:\n        /* \"ERC3643WhitelistBlacklist.sol\":2202:2207  false */\n      0x00\n        /* \"ERC3643WhitelistBlacklist.sol\":2181:2190  blacklist */\n      0x02\n        /* \"ERC3643WhitelistBlacklist.sol\":2181:2199  blacklist[account] */\n      0x00\n        /* \"ERC3643WhitelistBlacklist.sol\":2191:2198  account */\n      dup4\n        /* \"ERC3643WhitelistBlacklist.sol\":2181:2199  blacklist[account] */\n      0xffffffffffffffffffffffffffffffffffffffff\n      and\n      0xffffffffffffffffffffffffffffffffffffffff\n      and\n      dup2\n      mstore\n      0x20\n      add\n      swap1\n      dup2\n      mstore\n      0x20\n      add\n      0x00\n      keccak256\n      0x00\n        /* \"ERC3643WhitelistBlacklist.sol\":2181:2207  blacklist[account] = false */\n      0x0100\n      exp\n      dup2\n      sload\n      dup2\n      0xff\n      mul\n      not\n      and\n      swap1\n      dup4\n      iszero\n      iszero\n      mul\n      or\n      swap1\n      sstore\n      pop\n        /* \"ERC3643WhitelistBlacklist.sol\":2244:2251  account */\n      dup1\n        /* \"ERC3643WhitelistBlacklist.sol\":2223:2252  RemovedFromBlacklist(account) */\n      0xffffffffffffffffffffffffffffffffffffffff\n      and\n      0x2b6bf71b58b3583add364b3d9060ebf8019650f65f5be35f5464b9cb3e4ba2d4\n      mload(0x40)\n      mload(0x40)\n      dup1\n      swap2\n      sub\n      swap1\n      log2\n        /* \"ERC3643WhitelistBlacklist.sol\":2039:2260  function removeFromBlacklist(address account) external onlyAdmin {... */\n      pop\n      jump\t// out\n        /* \"ERC3643WhitelistBlacklist.sol\":1363:1584  function removeFromWhitelist(address account) external onlyAdmin {... */\n    tag_29:\n        /* \"ERC3643WhitelistBlacklist.sol\":766:771  admin */\n      0x00\n      dup1\n      sload\n      swap1\n      0x0100\n      exp\n      swap1\n      div\n      0xffffffffffffffffffffffffffffffffffffffff\n      and\n        /* \"ERC3643WhitelistBlacklist.sol\":752:771  msg.sender == admin */\n      0xffffffffffffffffffffffffffffffffffffffff\n      and\n        /* \"ERC3643WhitelistBlacklist.sol\":752:762  msg.sender */\n      caller\n        /* \"ERC3643WhitelistBlacklist.sol\":752:771  msg.sender == admin */\n      0xffffffffffffffffffffffffffffffffffffffff\n      and\n      eq\n        /* \"ERC3643WhitelistBlacklist.sol\":744:810  require(msg.sender == admin, \"Only admin can perform this action\") */\n      tag_75\n      jumpi\n      mload(0x40)\n      0x08c379a000000000000000000000000000000000000000000000000000000000\n      dup2\n      mstore\n      0x04\n      add\n      tag_76\n      swap1\n      tag_59\n      jump\t// in\n    tag_76:\n      mload(0x40)\n      dup1\n      swap2\n      sub\n      swap1\n      revert\n    tag_75:\n        /* \"ERC3643WhitelistBlacklist.sol\":1447:1456  whitelist */\n      0x01\n        /* \"ERC3643WhitelistBlacklist.sol\":1447:1465  whitelist[account] */\n      0x00\n        /* \"ERC3643WhitelistBlacklist.sol\":1457:1464  account */\n      dup3\n        /* \"ERC3643WhitelistBlacklist.sol\":1447:1465  whitelist[account] */\n      0xffffffffffffffffffffffffffffffffffffffff\n      and\n      0xffffffffffffffffffffffffffffffffffffffff\n      and\n      dup2\n      mstore\n      0x20\n      add\n      swap1\n      dup2\n      mstore\n      0x20\n      add\n      0x00\n      keccak256\n      0x00\n      swap1\n      sload\n      swap1\n      0x0100\n      exp\n      swap1\n      div\n      0xff\n      and\n        /* \"ERC3643WhitelistBlacklist.sol\":1439:1494  require(whitelist[account], \"Address not in whitelist\") */\n      tag_78\n      jumpi\n      mload(0x40)\n      0x08c379a000000000000000000000000000000000000000000000000000000000\n      dup2\n      mstore\n      0x04\n      add\n      tag_79\n      swap1\n      tag_80\n      jump\t// in\n    tag_79:\n      mload(0x40)\n      dup1\n      swap2\n      sub\n      swap1\n      revert\n    tag_78:\n        /* \"ERC3643WhitelistBlacklist.sol\":1526:1531  false */\n      0x00\n        /* \"ERC3643WhitelistBlacklist.sol\":1505:1514  whitelist */\n      0x01\n        /* \"ERC3643WhitelistBlacklist.sol\":1505:1523  whitelist[account] */\n      0x00\n        /* \"ERC3643WhitelistBlacklist.sol\":1515:1522  account */\n      dup4\n        /* \"ERC3643WhitelistBlacklist.sol\":1505:1523  whitelist[account] */\n      0xffffffffffffffffffffffffffffffffffffffff\n      and\n      0xffffffffffffffffffffffffffffffffffffffff\n      and\n      dup2\n      mstore\n      0x20\n      add\n      swap1\n      dup2\n      mstore\n      0x20\n      add\n      0x00\n      keccak256\n      0x00\n        /* \"ERC3643WhitelistBlacklist.sol\":1505:1531  whitelist[account] = false */\n      0x0100\n      exp\n      dup2\n      sload\n      dup2\n      0xff\n      mul\n      not\n      and\n      swap1\n      dup4\n      iszero\n      iszero\n      mul\n      or\n      swap1\n      sstore\n      pop\n        /* \"ERC3643WhitelistBlacklist.sol\":1568:1575  account */\n      dup1\n        /* \"ERC3643WhitelistBlacklist.sol\":1547:1576  RemovedFromWhitelist(account) */\n      0xffffffffffffffffffffffffffffffffffffffff\n      and\n      0xcdd2e9b91a56913d370075169cefa1602ba36be5301664f752192bb1709df757\n      mload(0x40)\n      mload(0x40)\n      dup1\n      swap2\n      sub\n      swap1\n      log2\n        /* \"ERC3643WhitelistBlacklist.sol\":1363:1584  function removeFromWhitelist(address account) external onlyAdmin {... */\n      pop\n      jump\t// out\n        /* \"ERC3643WhitelistBlacklist.sol\":1073:1355  function addToWhitelist(address account) external onlyAdmin {... */\n    tag_32:\n        /* \"ERC3643WhitelistBlacklist.sol\":766:771  admin */\n      0x00\n      dup1\n      sload\n      swap1\n      0x0100\n      exp\n      swap1\n      div\n      0xffffffffffffffffffffffffffffffffffffffff\n      and\n        /* \"ERC3643WhitelistBlacklist.sol\":752:771  msg.sender == admin */\n      0xffffffffffffffffffffffffffffffffffffffff\n      and\n        /* \"ERC3643WhitelistBlacklist.sol\":752:762  msg.sender */\n      caller\n        /* \"ERC3643WhitelistBlacklist.sol\":752:771  msg.sender == admin */\n      0xffffffffffffffffffffffffffffffffffffffff\n      and\n      eq\n        /* \"ERC3643WhitelistBlacklist.sol\":744:810  require(msg.sender == admin, \"Only admin can perform this action\") */\n      tag_82\n      jumpi\n      mload(0x40)\n      0x08c379a000000000000000000000000000000000000000000000000000000000\n      dup2\n      mstore\n      0x04\n      add\n      tag_83\n      swap1\n      tag_59\n      jump\t// in\n    tag_83:\n      mload(0x40)\n      dup1\n      swap2\n      sub\n      swap1\n      revert\n    tag_82:\n        /* \"ERC3643WhitelistBlacklist.sol\":1153:1162  whitelist */\n      0x01\n        /* \"ERC3643WhitelistBlacklist.sol\":1153:1171  whitelist[account] */\n      0x00\n        /* \"ERC3643WhitelistBlacklist.sol\":1163:1170  account */\n      dup3\n        /* \"ERC3643WhitelistBlacklist.sol\":1153:1171  whitelist[account] */\n      0xffffffffffffffffffffffffffffffffffffffff\n      and\n      0xffffffffffffffffffffffffffffffffffffffff\n      and\n      dup2\n      mstore\n      0x20\n      add\n      swap1\n      dup2\n      mstore\n      0x20\n      add\n      0x00\n      keccak256\n      0x00\n      swap1\n      sload\n      swap1\n      0x0100\n      exp\n      swap1\n      div\n      0xff\n      and\n        /* \"ERC3643WhitelistBlacklist.sol\":1152:1171  !whitelist[account] */\n      iszero\n        /* \"ERC3643WhitelistBlacklist.sol\":1144:1204  require(!whitelist[account], \"Address already in whitelist\") */\n      tag_85\n      jumpi\n      mload(0x40)\n      0x08c379a000000000000000000000000000000000000000000000000000000000\n      dup2\n      mstore\n      0x04\n      add\n      tag_86\n      swap1\n      tag_87\n      jump\t// in\n    tag_86:\n      mload(0x40)\n      dup1\n      swap2\n      sub\n      swap1\n      revert\n    tag_85:\n        /* \"ERC3643WhitelistBlacklist.sol\":1224:1233  blacklist */\n      0x02\n        /* \"ERC3643WhitelistBlacklist.sol\":1224:1242  blacklist[account] */\n      0x00\n        /* \"ERC3643WhitelistBlacklist.sol\":1234:1241  account */\n      dup3\n        /* \"ERC3643WhitelistBlacklist.sol\":1224:1242  blacklist[account] */\n      0xffffffffffffffffffffffffffffffffffffffff\n      and\n      0xffffffffffffffffffffffffffffffffffffffff\n      and\n      dup2\n      mstore\n      0x20\n      add\n      swap1\n      dup2\n      mstore\n      0x20\n      add\n      0x00\n      keccak256\n      0x00\n      swap1\n      sload\n      swap1\n      0x0100\n      exp\n      swap1\n      div\n      0xff\n      and\n        /* \"ERC3643WhitelistBlacklist.sol\":1223:1242  !blacklist[account] */\n      iszero\n        /* \"ERC3643WhitelistBlacklist.sol\":1215:1270  require(!blacklist[account], \"Address is in blacklist\") */\n      tag_88\n      jumpi\n      mload(0x40)\n      0x08c379a000000000000000000000000000000000000000000000000000000000\n      dup2\n      mstore\n      0x04\n      add\n      tag_89\n      swap1\n      tag_90\n      jump\t// in\n    tag_89:\n      mload(0x40)\n      dup1\n      swap2\n      sub\n      swap1\n      revert\n    tag_88:\n        /* \"ERC3643WhitelistBlacklist.sol\":1302:1306  true */\n      0x01\n        /* \"ERC3643WhitelistBlacklist.sol\":1281:1290  whitelist */\n      dup1\n        /* \"ERC3643WhitelistBlacklist.sol\":1281:1299  whitelist[account] */\n      0x00\n        /* \"ERC3643WhitelistBlacklist.sol\":1291:1298  account */\n      dup4\n        /* \"ERC3643WhitelistBlacklist.sol\":1281:1299  whitelist[account] */\n      0xffffffffffffffffffffffffffffffffffffffff\n      and\n      0xffffffffffffffffffffffffffffffffffffffff\n      and\n      dup2\n      mstore\n      0x20\n      add\n      swap1\n      dup2\n      mstore\n      0x20\n      add\n      0x00\n      keccak256\n      0x00\n        /* \"ERC3643WhitelistBlacklist.sol\":1281:1306  whitelist[account] = true */\n      0x0100\n      exp\n      dup2\n      sload\n      dup2\n      0xff\n      mul\n      not\n      and\n      swap1\n      dup4\n      iszero\n      iszero\n      mul\n      or\n      swap1\n      sstore\n      pop\n        /* \"ERC3643WhitelistBlacklist.sol\":1339:1346  account */\n      dup1\n        /* \"ERC3643WhitelistBlacklist.sol\":1322:1347  AddedToWhitelist(account) */\n      0xffffffffffffffffffffffffffffffffffffffff\n      and\n      0xa850ae9193f515cbae8d35e8925bd2be26627fc91bce650b8652ed254e9cab03\n      mload(0x40)\n      mload(0x40)\n      dup1\n      swap2\n      sub\n      swap1\n      log2\n        /* \"ERC3643WhitelistBlacklist.sol\":1073:1355  function addToWhitelist(address account) external onlyAdmin {... */\n      pop\n      jump\t// out\n        /* \"ERC3643WhitelistBlacklist.sol\":375:395  address public admin */\n    tag_34:\n      0x00\n      dup1\n      sload\n      swap1\n      0x0100\n      exp\n      swap1\n      div\n      0xffffffffffffffffffffffffffffffffffffffff\n      and\n      dup2\n      jump\t// out\n        /* \"ERC3643WhitelistBlacklist.sol\":2268:2379  function isBlacklisted(address account) public view returns (bool) {... */\n    tag_39:\n        /* \"ERC3643WhitelistBlacklist.sol\":2329:2333  bool */\n      0x00\n        /* \"ERC3643WhitelistBlacklist.sol\":2353:2362  blacklist */\n      0x02\n        /* \"ERC3643WhitelistBlacklist.sol\":2353:2371  blacklist[account] */\n      0x00\n        /* \"ERC3643WhitelistBlacklist.sol\":2363:2370  account */\n      dup4\n        /* \"ERC3643WhitelistBlacklist.sol\":2353:2371  blacklist[account] */\n      0xffffffffffffffffffffffffffffffffffffffff\n      and\n      0xffffffffffffffffffffffffffffffffffffffff\n      and\n      dup2\n      mstore\n      0x20\n      add\n      swap1\n      dup2\n      mstore\n      0x20\n      add\n      0x00\n      keccak256\n      0x00\n      swap1\n      sload\n      swap1\n      0x0100\n      exp\n      swap1\n      div\n      0xff\n      and\n        /* \"ERC3643WhitelistBlacklist.sol\":2346:2371  return blacklist[account] */\n      swap1\n      pop\n        /* \"ERC3643WhitelistBlacklist.sol\":2268:2379  function isBlacklisted(address account) public view returns (bool) {... */\n      swap2\n      swap1\n      pop\n      jump\t// out\n        /* \"#utility.yul\":88:205   */\n    tag_93:\n        /* \"#utility.yul\":197:198   */\n      0x00\n        /* \"#utility.yul\":194:195   */\n      dup1\n        /* \"#utility.yul\":187:199   */\n      revert\n        /* \"#utility.yul\":334:460   */\n    tag_95:\n        /* \"#utility.yul\":371:378   */\n      0x00\n        /* \"#utility.yul\":411:453   */\n      0xffffffffffffffffffffffffffffffffffffffff\n        /* \"#utility.yul\":404:409   */\n      dup3\n        /* \"#utility.yul\":400:454   */\n      and\n        /* \"#utility.yul\":389:454   */\n      swap1\n      pop\n        /* \"#utility.yul\":334:460   */\n      swap2\n      swap1\n      pop\n      jump\t// out\n        /* \"#utility.yul\":466:562   */\n    tag_96:\n        /* \"#utility.yul\":503:510   */\n      0x00\n        /* \"#utility.yul\":532:556   */\n      tag_129\n        /* \"#utility.yul\":550:555   */\n      dup3\n        /* \"#utility.yul\":532:556   */\n      tag_95\n      jump\t// in\n    tag_129:\n        /* \"#utility.yul\":521:556   */\n      swap1\n      pop\n        /* \"#utility.yul\":466:562   */\n      swap2\n      swap1\n      pop\n      jump\t// out\n        /* \"#utility.yul\":568:690   */\n    tag_97:\n        /* \"#utility.yul\":641:665   */\n      tag_131\n        /* \"#utility.yul\":659:664   */\n      dup2\n        /* \"#utility.yul\":641:665   */\n      tag_96\n      jump\t// in\n    tag_131:\n        /* \"#utility.yul\":634:639   */\n      dup2\n        /* \"#utility.yul\":631:666   */\n      eq\n        /* \"#utility.yul\":621:684   */\n      tag_132\n      jumpi\n        /* \"#utility.yul\":680:681   */\n      0x00\n        /* \"#utility.yul\":677:678   */\n      dup1\n        /* \"#utility.yul\":670:682   */\n      revert\n        /* \"#utility.yul\":621:684   */\n    tag_132:\n        /* \"#utility.yul\":568:690   */\n      pop\n      jump\t// out\n        /* \"#utility.yul\":696:835   */\n    tag_98:\n        /* \"#utility.yul\":742:747   */\n      0x00\n        /* \"#utility.yul\":780:786   */\n      dup2\n        /* \"#utility.yul\":767:787   */\n      calldataload\n        /* \"#utility.yul\":758:787   */\n      swap1\n      pop\n        /* \"#utility.yul\":796:829   */\n      tag_134\n        /* \"#utility.yul\":823:828   */\n      dup2\n        /* \"#utility.yul\":796:829   */\n      tag_97\n      jump\t// in\n    tag_134:\n        /* \"#utility.yul\":696:835   */\n      swap3\n      swap2\n      pop\n      pop\n      jump\t// out\n        /* \"#utility.yul\":841:1170   */\n    tag_14:\n        /* \"#utility.yul\":900:906   */\n      0x00\n        /* \"#utility.yul\":949:951   */\n      0x20\n        /* \"#utility.yul\":937:946   */\n      dup3\n        /* \"#utility.yul\":928:935   */\n      dup5\n        /* \"#utility.yul\":924:947   */\n      sub\n        /* \"#utility.yul\":920:952   */\n      slt\n        /* \"#utility.yul\":917:1036   */\n      iszero\n      tag_136\n      jumpi\n        /* \"#utility.yul\":955:1034   */\n      tag_137\n      tag_93\n      jump\t// in\n    tag_137:\n        /* \"#utility.yul\":917:1036   */\n    tag_136:\n        /* \"#utility.yul\":1075:1076   */\n      0x00\n        /* \"#utility.yul\":1100:1153   */\n      tag_138\n        /* \"#utility.yul\":1145:1152   */\n      dup5\n        /* \"#utility.yul\":1136:1142   */\n      dup3\n        /* \"#utility.yul\":1125:1134   */\n      dup6\n        /* \"#utility.yul\":1121:1143   */\n      add\n        /* \"#utility.yul\":1100:1153   */\n      tag_98\n      jump\t// in\n    tag_138:\n        /* \"#utility.yul\":1090:1153   */\n      swap2\n      pop\n        /* \"#utility.yul\":1046:1163   */\n      pop\n        /* \"#utility.yul\":841:1170   */\n      swap3\n      swap2\n      pop\n      pop\n      jump\t// out\n        /* \"#utility.yul\":1176:1266   */\n    tag_99:\n        /* \"#utility.yul\":1210:1217   */\n      0x00\n        /* \"#utility.yul\":1253:1258   */\n      dup2\n        /* \"#utility.yul\":1246:1259   */\n      iszero\n        /* \"#utility.yul\":1239:1260   */\n      iszero\n        /* \"#utility.yul\":1228:1260   */\n      swap1\n      pop\n        /* \"#utility.yul\":1176:1266   */\n      swap2\n      swap1\n      pop\n      jump\t// out\n        /* \"#utility.yul\":1272:1381   */\n    tag_100:\n        /* \"#utility.yul\":1353:1374   */\n      tag_141\n        /* \"#utility.yul\":1368:1373   */\n      dup2\n        /* \"#utility.yul\":1353:1374   */\n      tag_99\n      jump\t// in\n    tag_141:\n        /* \"#utility.yul\":1348:1351   */\n      dup3\n        /* \"#utility.yul\":1341:1375   */\n      mstore\n        /* \"#utility.yul\":1272:1381   */\n      pop\n      pop\n      jump\t// out\n        /* \"#utility.yul\":1387:1597   */\n    tag_20:\n        /* \"#utility.yul\":1474:1478   */\n      0x00\n        /* \"#utility.yul\":1512:1514   */\n      0x20\n        /* \"#utility.yul\":1501:1510   */\n      dup3\n        /* \"#utility.yul\":1497:1515   */\n      add\n        /* \"#utility.yul\":1489:1515   */\n      swap1\n      pop\n        /* \"#utility.yul\":1525:1590   */\n      tag_143\n        /* \"#utility.yul\":1587:1588   */\n      0x00\n        /* \"#utility.yul\":1576:1585   */\n      dup4\n        /* \"#utility.yul\":1572:1589   */\n      add\n        /* \"#utility.yul\":1563:1569   */\n      dup5\n        /* \"#utility.yul\":1525:1590   */\n      tag_100\n      jump\t// in\n    tag_143:\n        /* \"#utility.yul\":1387:1597   */\n      swap3\n      swap2\n      pop\n      pop\n      jump\t// out\n        /* \"#utility.yul\":1603:1721   */\n    tag_101:\n        /* \"#utility.yul\":1690:1714   */\n      tag_145\n        /* \"#utility.yul\":1708:1713   */\n      dup2\n        /* \"#utility.yul\":1690:1714   */\n      tag_96\n      jump\t// in\n    tag_145:\n        /* \"#utility.yul\":1685:1688   */\n      dup3\n        /* \"#utility.yul\":1678:1715   */\n      mstore\n        /* \"#utility.yul\":1603:1721   */\n      pop\n      pop\n      jump\t// out\n        /* \"#utility.yul\":1727:1949   */\n    tag_36:\n        /* \"#utility.yul\":1820:1824   */\n      0x00\n        /* \"#utility.yul\":1858:1860   */\n      0x20\n        /* \"#utility.yul\":1847:1856   */\n      dup3\n        /* \"#utility.yul\":1843:1861   */\n      add\n        /* \"#utility.yul\":1835:1861   */\n      swap1\n      pop\n        /* \"#utility.yul\":1871:1942   */\n      tag_147\n        /* \"#utility.yul\":1939:1940   */\n      0x00\n        /* \"#utility.yul\":1928:1937   */\n      dup4\n        /* \"#utility.yul\":1924:1941   */\n      add\n        /* \"#utility.yul\":1915:1921   */\n      dup5\n        /* \"#utility.yul\":1871:1942   */\n      tag_101\n      jump\t// in\n    tag_147:\n        /* \"#utility.yul\":1727:1949   */\n      swap3\n      swap2\n      pop\n      pop\n      jump\t// out\n        /* \"#utility.yul\":1955:2124   */\n    tag_102:\n        /* \"#utility.yul\":2039:2050   */\n      0x00\n        /* \"#utility.yul\":2073:2079   */\n      dup3\n        /* \"#utility.yul\":2068:2071   */\n      dup3\n        /* \"#utility.yul\":2061:2080   */\n      mstore\n        /* \"#utility.yul\":2113:2117   */\n      0x20\n        /* \"#utility.yul\":2108:2111   */\n      dup3\n        /* \"#utility.yul\":2104:2118   */\n      add\n        /* \"#utility.yul\":2089:2118   */\n      swap1\n      pop\n        /* \"#utility.yul\":1955:2124   */\n      swap3\n      swap2\n      pop\n      pop\n      jump\t// out\n        /* \"#utility.yul\":2130:2302   */\n    tag_103:\n        /* \"#utility.yul\":2270:2294   */\n      0x4164647265737320697320626c61636b6c697374656400000000000000000000\n        /* \"#utility.yul\":2266:2267   */\n      0x00\n        /* \"#utility.yul\":2258:2264   */\n      dup3\n        /* \"#utility.yul\":2254:2268   */\n      add\n        /* \"#utility.yul\":2247:2295   */\n      mstore\n        /* \"#utility.yul\":2130:2302   */\n      pop\n      jump\t// out\n        /* \"#utility.yul\":2308:2674   */\n    tag_104:\n        /* \"#utility.yul\":2450:2453   */\n      0x00\n        /* \"#utility.yul\":2471:2538   */\n      tag_151\n        /* \"#utility.yul\":2535:2537   */\n      0x16\n        /* \"#utility.yul\":2530:2533   */\n      dup4\n        /* \"#utility.yul\":2471:2538   */\n      tag_102\n      jump\t// in\n    tag_151:\n        /* \"#utility.yul\":2464:2538   */\n      swap2\n      pop\n        /* \"#utility.yul\":2547:2640   */\n      tag_152\n        /* \"#utility.yul\":2636:2639   */\n      dup3\n        /* \"#utility.yul\":2547:2640   */\n      tag_103\n      jump\t// in\n    tag_152:\n        /* \"#utility.yul\":2665:2667   */\n      0x20\n        /* \"#utility.yul\":2660:2663   */\n      dup3\n        /* \"#utility.yul\":2656:2668   */\n      add\n        /* \"#utility.yul\":2649:2668   */\n      swap1\n      pop\n        /* \"#utility.yul\":2308:2674   */\n      swap2\n      swap1\n      pop\n      jump\t// out\n        /* \"#utility.yul\":2680:3099   */\n    tag_44:\n        /* \"#utility.yul\":2846:2850   */\n      0x00\n        /* \"#utility.yul\":2884:2886   */\n      0x20\n        /* \"#utility.yul\":2873:2882   */\n      dup3\n        /* \"#utility.yul\":2869:2887   */\n      add\n        /* \"#utility.yul\":2861:2887   */\n      swap1\n      pop\n        /* \"#utility.yul\":2933:2942   */\n      dup2\n        /* \"#utility.yul\":2927:2931   */\n      dup2\n        /* \"#utility.yul\":2923:2943   */\n      sub\n        /* \"#utility.yul\":2919:2920   */\n      0x00\n        /* \"#utility.yul\":2908:2917   */\n      dup4\n        /* \"#utility.yul\":2904:2921   */\n      add\n        /* \"#utility.yul\":2897:2944   */\n      mstore\n        /* \"#utility.yul\":2961:3092   */\n      tag_154\n        /* \"#utility.yul\":3087:3091   */\n      dup2\n        /* \"#utility.yul\":2961:3092   */\n      tag_104\n      jump\t// in\n    tag_154:\n        /* \"#utility.yul\":2953:3092   */\n      swap1\n      pop\n        /* \"#utility.yul\":2680:3099   */\n      swap2\n      swap1\n      pop\n      jump\t// out\n        /* \"#utility.yul\":3105:3280   */\n    tag_105:\n        /* \"#utility.yul\":3245:3272   */\n      0x53656e646572206973206e6f742077686974656c697374656400000000000000\n        /* \"#utility.yul\":3241:3242   */\n      0x00\n        /* \"#utility.yul\":3233:3239   */\n      dup3\n        /* \"#utility.yul\":3229:3243   */\n      add\n        /* \"#utility.yul\":3222:3273   */\n      mstore\n        /* \"#utility.yul\":3105:3280   */\n      pop\n      jump\t// out\n        /* \"#utility.yul\":3286:3652   */\n    tag_106:\n        /* \"#utility.yul\":3428:3431   */\n      0x00\n        /* \"#utility.yul\":3449:3516   */\n      tag_157\n        /* \"#utility.yul\":3513:3515   */\n      0x19\n        /* \"#utility.yul\":3508:3511   */\n      dup4\n        /* \"#utility.yul\":3449:3516   */\n      tag_102\n      jump\t// in\n    tag_157:\n        /* \"#utility.yul\":3442:3516   */\n      swap2\n      pop\n        /* \"#utility.yul\":3525:3618   */\n      tag_158\n        /* \"#utility.yul\":3614:3617   */\n      dup3\n        /* \"#utility.yul\":3525:3618   */\n      tag_105\n      jump\t// in\n    tag_158:\n        /* \"#utility.yul\":3643:3645   */\n      0x20\n        /* \"#utility.yul\":3638:3641   */\n      dup3\n        /* \"#utility.yul\":3634:3646   */\n      add\n        /* \"#utility.yul\":3627:3646   */\n      swap1\n      pop\n        /* \"#utility.yul\":3286:3652   */\n      swap2\n      swap1\n      pop\n      jump\t// out\n        /* \"#utility.yul\":3658:4077   */\n    tag_51:\n        /* \"#utility.yul\":3824:3828   */\n      0x00\n        /* \"#utility.yul\":3862:3864   */\n      0x20\n        /* \"#utility.yul\":3851:3860   */\n      dup3\n        /* \"#utility.yul\":3847:3865   */\n      add\n        /* \"#utility.yul\":3839:3865   */\n      swap1\n      pop\n        /* \"#utility.yul\":3911:3920   */\n      dup2\n        /* \"#utility.yul\":3905:3909   */\n      dup2\n        /* \"#utility.yul\":3901:3921   */\n      sub\n        /* \"#utility.yul\":3897:3898   */\n      0x00\n        /* \"#utility.yul\":3886:3895   */\n      dup4\n        /* \"#utility.yul\":3882:3899   */\n      add\n        /* \"#utility.yul\":3875:3922   */\n      mstore\n        /* \"#utility.yul\":3939:4070   */\n      tag_160\n        /* \"#utility.yul\":4065:4069   */\n      dup2\n        /* \"#utility.yul\":3939:4070   */\n      tag_106\n      jump\t// in\n    tag_160:\n        /* \"#utility.yul\":3931:4070   */\n      swap1\n      pop\n        /* \"#utility.yul\":3658:4077   */\n      swap2\n      swap1\n      pop\n      jump\t// out\n        /* \"#utility.yul\":4083:4261   */\n    tag_107:\n        /* \"#utility.yul\":4223:4253   */\n      0x526563697069656e74206973206e6f742077686974656c697374656400000000\n        /* \"#utility.yul\":4219:4220   */\n      0x00\n        /* \"#utility.yul\":4211:4217   */\n      dup3\n        /* \"#utility.yul\":4207:4221   */\n      add\n        /* \"#utility.yul\":4200:4254   */\n      mstore\n        /* \"#utility.yul\":4083:4261   */\n      pop\n      jump\t// out\n        /* \"#utility.yul\":4267:4633   */\n    tag_108:\n        /* \"#utility.yul\":4409:4412   */\n      0x00\n        /* \"#utility.yul\":4430:4497   */\n      tag_163\n        /* \"#utility.yul\":4494:4496   */\n      0x1c\n        /* \"#utility.yul\":4489:4492   */\n      dup4\n        /* \"#utility.yul\":4430:4497   */\n      tag_102\n      jump\t// in\n    tag_163:\n        /* \"#utility.yul\":4423:4497   */\n      swap2\n      pop\n        /* \"#utility.yul\":4506:4599   */\n      tag_164\n        /* \"#utility.yul\":4595:4598   */\n      dup3\n        /* \"#utility.yul\":4506:4599   */\n      tag_107\n      jump\t// in\n    tag_164:\n        /* \"#utility.yul\":4624:4626   */\n      0x20\n        /* \"#utility.yul\":4619:4622   */\n      dup3\n        /* \"#utility.yul\":4615:4627   */\n      add\n        /* \"#utility.yul\":4608:4627   */\n      swap1\n      pop\n        /* \"#utility.yul\":4267:4633   */\n      swap2\n      swap1\n      pop\n      jump\t// out\n        /* \"#utility.yul\":4639:5058   */\n    tag_54:\n        /* \"#utility.yul\":4805:4809   */\n      0x00\n        /* \"#utility.yul\":4843:4845   */\n      0x20\n        /* \"#utility.yul\":4832:4841   */\n      dup3\n        /* \"#utility.yul\":4828:4846   */\n      add\n        /* \"#utility.yul\":4820:4846   */\n      swap1\n      pop\n        /* \"#utility.yul\":4892:4901   */\n      dup2\n        /* \"#utility.yul\":4886:4890   */\n      dup2\n        /* \"#utility.yul\":4882:4902   */\n      sub\n        /* \"#utility.yul\":4878:4879   */\n      0x00\n        /* \"#utility.yul\":4867:4876   */\n      dup4\n        /* \"#utility.yul\":4863:4880   */\n      add\n        /* \"#utility.yul\":4856:4903   */\n      mstore\n        /* \"#utility.yul\":4920:5051   */\n      tag_166\n        /* \"#utility.yul\":5046:5050   */\n      dup2\n        /* \"#utility.yul\":4920:5051   */\n      tag_108\n      jump\t// in\n    tag_166:\n        /* \"#utility.yul\":4912:5051   */\n      swap1\n      pop\n        /* \"#utility.yul\":4639:5058   */\n      swap2\n      swap1\n      pop\n      jump\t// out\n        /* \"#utility.yul\":5064:5285   */\n    tag_109:\n        /* \"#utility.yul\":5204:5238   */\n      0x4f6e6c792061646d696e2063616e20706572666f726d20746869732061637469\n        /* \"#utility.yul\":5200:5201   */\n      0x00\n        /* \"#utility.yul\":5192:5198   */\n      dup3\n        /* \"#utility.yul\":5188:5202   */\n      add\n        /* \"#utility.yul\":5181:5239   */\n      mstore\n        /* \"#utility.yul\":5273:5277   */\n      0x6f6e000000000000000000000000000000000000000000000000000000000000\n        /* \"#utility.yul\":5268:5270   */\n      0x20\n        /* \"#utility.yul\":5260:5266   */\n      dup3\n        /* \"#utility.yul\":5256:5271   */\n      add\n        /* \"#utility.yul\":5249:5278   */\n      mstore\n        /* \"#utility.yul\":5064:5285   */\n      pop\n      jump\t// out\n        /* \"#utility.yul\":5291:5657   */\n    tag_110:\n        /* \"#utility.yul\":5433:5436   */\n      0x00\n        /* \"#utility.yul\":5454:5521   */\n      tag_169\n        /* \"#utility.yul\":5518:5520   */\n      0x22\n        /* \"#utility.yul\":5513:5516   */\n      dup4\n        /* \"#utility.yul\":5454:5521   */\n      tag_102\n      jump\t// in\n    tag_169:\n        /* \"#utility.yul\":5447:5521   */\n      swap2\n      pop\n        /* \"#utility.yul\":5530:5623   */\n      tag_170\n        /* \"#utility.yul\":5619:5622   */\n      dup3\n        /* \"#utility.yul\":5530:5623   */\n      tag_109\n      jump\t// in\n    tag_170:\n        /* \"#utility.yul\":5648:5650   */\n      0x40\n        /* \"#utility.yul\":5643:5646   */\n      dup3\n        /* \"#utility.yul\":5639:5651   */\n      add\n        /* \"#utility.yul\":5632:5651   */\n      swap1\n      pop\n        /* \"#utility.yul\":5291:5657   */\n      swap2\n      swap1\n      pop\n      jump\t// out\n        /* \"#utility.yul\":5663:6082   */\n    tag_59:\n        /* \"#utility.yul\":5829:5833   */\n      0x00\n        /* \"#utility.yul\":5867:5869   */\n      0x20\n        /* \"#utility.yul\":5856:5865   */\n      dup3\n        /* \"#utility.yul\":5852:5870   */\n      add\n        /* \"#utility.yul\":5844:5870   */\n      swap1\n      pop\n        /* \"#utility.yul\":5916:5925   */\n      dup2\n        /* \"#utility.yul\":5910:5914   */\n      dup2\n        /* \"#utility.yul\":5906:5926   */\n      sub\n        /* \"#utility.yul\":5902:5903   */\n      0x00\n        /* \"#utility.yul\":5891:5900   */\n      dup4\n        /* \"#utility.yul\":5887:5904   */\n      add\n        /* \"#utility.yul\":5880:5927   */\n      mstore\n        /* \"#utility.yul\":5944:6075   */\n      tag_172\n        /* \"#utility.yul\":6070:6074   */\n      dup2\n        /* \"#utility.yul\":5944:6075   */\n      tag_110\n      jump\t// in\n    tag_172:\n        /* \"#utility.yul\":5936:6075   */\n      swap1\n      pop\n        /* \"#utility.yul\":5663:6082   */\n      swap2\n      swap1\n      pop\n      jump\t// out\n        /* \"#utility.yul\":6088:6266   */\n    tag_111:\n        /* \"#utility.yul\":6228:6258   */\n      0x4164647265737320616c726561647920696e20626c61636b6c69737400000000\n        /* \"#utility.yul\":6224:6225   */\n      0x00\n        /* \"#utility.yul\":6216:6222   */\n      dup3\n        /* \"#utility.yul\":6212:6226   */\n      add\n        /* \"#utility.yul\":6205:6259   */\n      mstore\n        /* \"#utility.yul\":6088:6266   */\n      pop\n      jump\t// out\n        /* \"#utility.yul\":6272:6638   */\n    tag_112:\n        /* \"#utility.yul\":6414:6417   */\n      0x00\n        /* \"#utility.yul\":6435:6502   */\n      tag_175\n        /* \"#utility.yul\":6499:6501   */\n      0x1c\n        /* \"#utility.yul\":6494:6497   */\n      dup4\n        /* \"#utility.yul\":6435:6502   */\n      tag_102\n      jump\t// in\n    tag_175:\n        /* \"#utility.yul\":6428:6502   */\n      swap2\n      pop\n        /* \"#utility.yul\":6511:6604   */\n      tag_176\n        /* \"#utility.yul\":6600:6603   */\n      dup3\n        /* \"#utility.yul\":6511:6604   */\n      tag_111\n      jump\t// in\n    tag_176:\n        /* \"#utility.yul\":6629:6631   */\n      0x20\n        /* \"#utility.yul\":6624:6627   */\n      dup3\n        /* \"#utility.yul\":6620:6632   */\n      add\n        /* \"#utility.yul\":6613:6632   */\n      swap1\n      pop\n        /* \"#utility.yul\":6272:6638   */\n      swap2\n      swap1\n      pop\n      jump\t// out\n        /* \"#utility.yul\":6644:7063   */\n    tag_63:\n        /* \"#utility.yul\":6810:6814   */\n      0x00\n        /* \"#utility.yul\":6848:6850   */\n      0x20\n        /* \"#utility.yul\":6837:6846   */\n      dup3\n        /* \"#utility.yul\":6833:6851   */\n      add\n        /* \"#utility.yul\":6825:6851   */\n      swap1\n      pop\n        /* \"#utility.yul\":6897:6906   */\n      dup2\n        /* \"#utility.yul\":6891:6895   */\n      dup2\n        /* \"#utility.yul\":6887:6907   */\n      sub\n        /* \"#utility.yul\":6883:6884   */\n      0x00\n        /* \"#utility.yul\":6872:6881   */\n      dup4\n        /* \"#utility.yul\":6868:6885   */\n      add\n        /* \"#utility.yul\":6861:6908   */\n      mstore\n        /* \"#utility.yul\":6925:7056   */\n      tag_178\n        /* \"#utility.yul\":7051:7055   */\n      dup2\n        /* \"#utility.yul\":6925:7056   */\n      tag_112\n      jump\t// in\n    tag_178:\n        /* \"#utility.yul\":6917:7056   */\n      swap1\n      pop\n        /* \"#utility.yul\":6644:7063   */\n      swap2\n      swap1\n      pop\n      jump\t// out\n        /* \"#utility.yul\":7069:7242   */\n    tag_113:\n        /* \"#utility.yul\":7209:7234   */\n      0x4164647265737320697320696e2077686974656c697374000000000000000000\n        /* \"#utility.yul\":7205:7206   */\n      0x00\n        /* \"#utility.yul\":7197:7203   */\n      dup3\n        /* \"#utility.yul\":7193:7207   */\n      add\n        /* \"#utility.yul\":7186:7235   */\n      mstore\n        /* \"#utility.yul\":7069:7242   */\n      pop\n      jump\t// out\n        /* \"#utility.yul\":7248:7614   */\n    tag_114:\n        /* \"#utility.yul\":7390:7393   */\n      0x00\n        /* \"#utility.yul\":7411:7478   */\n      tag_181\n        /* \"#utility.yul\":7475:7477   */\n      0x17\n        /* \"#utility.yul\":7470:7473   */\n      dup4\n        /* \"#utility.yul\":7411:7478   */\n      tag_102\n      jump\t// in\n    tag_181:\n        /* \"#utility.yul\":7404:7478   */\n      swap2\n      pop\n        /* \"#utility.yul\":7487:7580   */\n      tag_182\n        /* \"#utility.yul\":7576:7579   */\n      dup3\n        /* \"#utility.yul\":7487:7580   */\n      tag_113\n      jump\t// in\n    tag_182:\n        /* \"#utility.yul\":7605:7607   */\n      0x20\n        /* \"#utility.yul\":7600:7603   */\n      dup3\n        /* \"#utility.yul\":7596:7608   */\n      add\n        /* \"#utility.yul\":7589:7608   */\n      swap1\n      pop\n        /* \"#utility.yul\":7248:7614   */\n      swap2\n      swap1\n      pop\n      jump\t// out\n        /* \"#utility.yul\":7620:8039   */\n    tag_66:\n        /* \"#utility.yul\":7786:7790   */\n      0x00\n        /* \"#utility.yul\":7824:7826   */\n      0x20\n        /* \"#utility.yul\":7813:7822   */\n      dup3\n        /* \"#utility.yul\":7809:7827   */\n      add\n        /* \"#utility.yul\":7801:7827   */\n      swap1\n      pop\n        /* \"#utility.yul\":7873:7882   */\n      dup2\n        /* \"#utility.yul\":7867:7871   */\n      dup2\n        /* \"#utility.yul\":7863:7883   */\n      sub\n        /* \"#utility.yul\":7859:7860   */\n      0x00\n        /* \"#utility.yul\":7848:7857   */\n      dup4\n        /* \"#utility.yul\":7844:7861   */\n      add\n        /* \"#utility.yul\":7837:7884   */\n      mstore\n        /* \"#utility.yul\":7901:8032   */\n      tag_184\n        /* \"#utility.yul\":8027:8031   */\n      dup2\n        /* \"#utility.yul\":7901:8032   */\n      tag_114\n      jump\t// in\n    tag_184:\n        /* \"#utility.yul\":7893:8032   */\n      swap1\n      pop\n        /* \"#utility.yul\":7620:8039   */\n      swap2\n      swap1\n      pop\n      jump\t// out\n        /* \"#utility.yul\":8045:8219   */\n    tag_115:\n        /* \"#utility.yul\":8185:8211   */\n      0x41646472657373206e6f7420696e20626c61636b6c6973740000000000000000\n        /* \"#utility.yul\":8181:8182   */\n      0x00\n        /* \"#utility.yul\":8173:8179   */\n      dup3\n        /* \"#utility.yul\":8169:8183   */\n      add\n        /* \"#utility.yul\":8162:8212   */\n      mstore\n        /* \"#utility.yul\":8045:8219   */\n      pop\n      jump\t// out\n        /* \"#utility.yul\":8225:8591   */\n    tag_116:\n        /* \"#utility.yul\":8367:8370   */\n      0x00\n        /* \"#utility.yul\":8388:8455   */\n      tag_187\n        /* \"#utility.yul\":8452:8454   */\n      0x18\n        /* \"#utility.yul\":8447:8450   */\n      dup4\n        /* \"#utility.yul\":8388:8455   */\n      tag_102\n      jump\t// in\n    tag_187:\n        /* \"#utility.yul\":8381:8455   */\n      swap2\n      pop\n        /* \"#utility.yul\":8464:8557   */\n      tag_188\n        /* \"#utility.yul\":8553:8556   */\n      dup3\n        /* \"#utility.yul\":8464:8557   */\n      tag_115\n      jump\t// in\n    tag_188:\n        /* \"#utility.yul\":8582:8584   */\n      0x20\n        /* \"#utility.yul\":8577:8580   */\n      dup3\n        /* \"#utility.yul\":8573:8585   */\n      add\n        /* \"#utility.yul\":8566:8585   */\n      swap1\n      pop\n        /* \"#utility.yul\":8225:8591   */\n      swap2\n      swap1\n      pop\n      jump\t// out\n        /* \"#utility.yul\":8597:9016   */\n    tag_73:\n        /* \"#utility.yul\":8763:8767   */\n      0x00\n        /* \"#utility.yul\":8801:8803   */\n      0x20\n        /* \"#utility.yul\":8790:8799   */\n      dup3\n        /* \"#utility.yul\":8786:8804   */\n      add\n        /* \"#utility.yul\":8778:8804   */\n      swap1\n      pop\n        /* \"#utility.yul\":8850:8859   */\n      dup2\n        /* \"#utility.yul\":8844:8848   */\n      dup2\n        /* \"#utility.yul\":8840:8860   */\n      sub\n        /* \"#utility.yul\":8836:8837   */\n      0x00\n        /* \"#utility.yul\":8825:8834   */\n      dup4\n        /* \"#utility.yul\":8821:8838   */\n      add\n        /* \"#utility.yul\":8814:8861   */\n      mstore\n        /* \"#utility.yul\":8878:9009   */\n      tag_190\n        /* \"#utility.yul\":9004:9008   */\n      dup2\n        /* \"#utility.yul\":8878:9009   */\n      tag_116\n      jump\t// in\n    tag_190:\n        /* \"#utility.yul\":8870:9009   */\n      swap1\n      pop\n        /* \"#utility.yul\":8597:9016   */\n      swap2\n      swap1\n      pop\n      jump\t// out\n        /* \"#utility.yul\":9022:9196   */\n    tag_117:\n        /* \"#utility.yul\":9162:9188   */\n      0x41646472657373206e6f7420696e2077686974656c6973740000000000000000\n        /* \"#utility.yul\":9158:9159   */\n      0x00\n        /* \"#utility.yul\":9150:9156   */\n      dup3\n        /* \"#utility.yul\":9146:9160   */\n      add\n        /* \"#utility.yul\":9139:9189   */\n      mstore\n        /* \"#utility.yul\":9022:9196   */\n      pop\n      jump\t// out\n        /* \"#utility.yul\":9202:9568   */\n    tag_118:\n        /* \"#utility.yul\":9344:9347   */\n      0x00\n        /* \"#utility.yul\":9365:9432   */\n      tag_193\n        /* \"#utility.yul\":9429:9431   */\n      0x18\n        /* \"#utility.yul\":9424:9427   */\n      dup4\n        /* \"#utility.yul\":9365:9432   */\n      tag_102\n      jump\t// in\n    tag_193:\n        /* \"#utility.yul\":9358:9432   */\n      swap2\n      pop\n        /* \"#utility.yul\":9441:9534   */\n      tag_194\n        /* \"#utility.yul\":9530:9533   */\n      dup3\n        /* \"#utility.yul\":9441:9534   */\n      tag_117\n      jump\t// in\n    tag_194:\n        /* \"#utility.yul\":9559:9561   */\n      0x20\n        /* \"#utility.yul\":9554:9557   */\n      dup3\n        /* \"#utility.yul\":9550:9562   */\n      add\n        /* \"#utility.yul\":9543:9562   */\n      swap1\n      pop\n        /* \"#utility.yul\":9202:9568   */\n      swap2\n      swap1\n      pop\n      jump\t// out\n        /* \"#utility.yul\":9574:9993   */\n    tag_80:\n        /* \"#utility.yul\":9740:9744   */\n      0x00\n        /* \"#utility.yul\":9778:9780   */\n      0x20\n        /* \"#utility.yul\":9767:9776   */\n      dup3\n        /* \"#utility.yul\":9763:9781   */\n      add\n        /* \"#utility.yul\":9755:9781   */\n      swap1\n      pop\n        /* \"#utility.yul\":9827:9836   */\n      dup2\n        /* \"#utility.yul\":9821:9825   */\n      dup2\n        /* \"#utility.yul\":9817:9837   */\n      sub\n        /* \"#utility.yul\":9813:9814   */\n      0x00\n        /* \"#utility.yul\":9802:9811   */\n      dup4\n        /* \"#utility.yul\":9798:9815   */\n      add\n        /* \"#utility.yul\":9791:9838   */\n      mstore\n        /* \"#utility.yul\":9855:9986   */\n      tag_196\n        /* \"#utility.yul\":9981:9985   */\n      dup2\n        /* \"#utility.yul\":9855:9986   */\n      tag_118\n      jump\t// in\n    tag_196:\n        /* \"#utility.yul\":9847:9986   */\n      swap1\n      pop\n        /* \"#utility.yul\":9574:9993   */\n      swap2\n      swap1\n      pop\n      jump\t// out\n        /* \"#utility.yul\":9999:10177   */\n    tag_119:\n        /* \"#utility.yul\":10139:10169   */\n      0x4164647265737320616c726561647920696e2077686974656c69737400000000\n        /* \"#utility.yul\":10135:10136   */\n      0x00\n        /* \"#utility.yul\":10127:10133   */\n      dup3\n        /* \"#utility.yul\":10123:10137   */\n      add\n        /* \"#utility.yul\":10116:10170   */\n      mstore\n        /* \"#utility.yul\":9999:10177   */\n      pop\n      jump\t// out\n        /* \"#utility.yul\":10183:10549   */\n    tag_120:\n        /* \"#utility.yul\":10325:10328   */\n      0x00\n        /* \"#utility.yul\":10346:10413   */\n      tag_199\n        /* \"#utility.yul\":10410:10412   */\n      0x1c\n        /* \"#utility.yul\":10405:10408   */\n      dup4\n        /* \"#utility.yul\":10346:10413   */\n      tag_102\n      jump\t// in\n    tag_199:\n        /* \"#utility.yul\":10339:10413   */\n      swap2\n      pop\n        /* \"#utility.yul\":10422:10515   */\n      tag_200\n        /* \"#utility.yul\":10511:10514   */\n      dup3\n        /* \"#utility.yul\":10422:10515   */\n      tag_119\n      jump\t// in\n    tag_200:\n        /* \"#utility.yul\":10540:10542   */\n      0x20\n        /* \"#utility.yul\":10535:10538   */\n      dup3\n        /* \"#utility.yul\":10531:10543   */\n      add\n        /* \"#utility.yul\":10524:10543   */\n      swap1\n      pop\n        /* \"#utility.yul\":10183:10549   */\n      swap2\n      swap1\n      pop\n      jump\t// out\n        /* \"#utility.yul\":10555:10974   */\n    tag_87:\n        /* \"#utility.yul\":10721:10725   */\n      0x00\n        /* \"#utility.yul\":10759:10761   */\n      0x20\n        /* \"#utility.yul\":10748:10757   */\n      dup3\n        /* \"#utility.yul\":10744:10762   */\n      add\n        /* \"#utility.yul\":10736:10762   */\n      swap1\n      pop\n        /* \"#utility.yul\":10808:10817   */\n      dup2\n        /* \"#utility.yul\":10802:10806   */\n      dup2\n        /* \"#utility.yul\":10798:10818   */\n      sub\n        /* \"#utility.yul\":10794:10795   */\n      0x00\n        /* \"#utility.yul\":10783:10792   */\n      dup4\n        /* \"#utility.yul\":10779:10796   */\n      add\n        /* \"#utility.yul\":10772:10819   */\n      mstore\n        /* \"#utility.yul\":10836:10967   */\n      tag_202\n        /* \"#utility.yul\":10962:10966   */\n      dup2\n        /* \"#utility.yul\":10836:10967   */\n      tag_120\n      jump\t// in\n    tag_202:\n        /* \"#utility.yul\":10828:10967   */\n      swap1\n      pop\n        /* \"#utility.yul\":10555:10974   */\n      swap2\n      swap1\n      pop\n      jump\t// out\n        /* \"#utility.yul\":10980:11153   */\n    tag_121:\n        /* \"#utility.yul\":11120:11145   */\n      0x4164647265737320697320696e20626c61636b6c697374000000000000000000\n        /* \"#utility.yul\":11116:11117   */\n      0x00\n        /* \"#utility.yul\":11108:11114   */\n      dup3\n        /* \"#utility.yul\":11104:11118   */\n      add\n        /* \"#utility.yul\":11097:11146   */\n      mstore\n        /* \"#utility.yul\":10980:11153   */\n      pop\n      jump\t// out\n        /* \"#utility.yul\":11159:11525   */\n    tag_122:\n        /* \"#utility.yul\":11301:11304   */\n      0x00\n        /* \"#utility.yul\":11322:11389   */\n      tag_205\n        /* \"#utility.yul\":11386:11388   */\n      0x17\n        /* \"#utility.yul\":11381:11384   */\n      dup4\n        /* \"#utility.yul\":11322:11389   */\n      tag_102\n      jump\t// in\n    tag_205:\n        /* \"#utility.yul\":11315:11389   */\n      swap2\n      pop\n        /* \"#utility.yul\":11398:11491   */\n      tag_206\n        /* \"#utility.yul\":11487:11490   */\n      dup3\n        /* \"#utility.yul\":11398:11491   */\n      tag_121\n      jump\t// in\n    tag_206:\n        /* \"#utility.yul\":11516:11518   */\n      0x20\n        /* \"#utility.yul\":11511:11514   */\n      dup3\n        /* \"#utility.yul\":11507:11519   */\n      add\n        /* \"#utility.yul\":11500:11519   */\n      swap1\n      pop\n        /* \"#utility.yul\":11159:11525   */\n      swap2\n      swap1\n      pop\n      jump\t// out\n        /* \"#utility.yul\":11531:11950   */\n    tag_90:\n        /* \"#utility.yul\":11697:11701   */\n      0x00\n        /* \"#utility.yul\":11735:11737   */\n      0x20\n        /* \"#utility.yul\":11724:11733   */\n      dup3\n        /* \"#utility.yul\":11720:11738   */\n      add\n        /* \"#utility.yul\":11712:11738   */\n      swap1\n      pop\n        /* \"#utility.yul\":11784:11793   */\n      dup2\n        /* \"#utility.yul\":11778:11782   */\n      dup2\n        /* \"#utility.yul\":11774:11794   */\n      sub\n        /* \"#utility.yul\":11770:11771   */\n      0x00\n        /* \"#utility.yul\":11759:11768   */\n      dup4\n        /* \"#utility.yul\":11755:11772   */\n      add\n        /* \"#utility.yul\":11748:11795   */\n      mstore\n        /* \"#utility.yul\":11812:11943   */\n      tag_208\n        /* \"#utility.yul\":11938:11942   */\n      dup2\n        /* \"#utility.yul\":11812:11943   */\n      tag_122\n      jump\t// in\n    tag_208:\n        /* \"#utility.yul\":11804:11943   */\n      swap1\n      pop\n        /* \"#utility.yul\":11531:11950   */\n      swap2\n      swap1\n      pop\n      jump\t// out\n\n    auxdata: 0xa264697066735822122097ef1079bd636d09f74e00c0402194ea5774b10b0ce27fcb3b8c8c91ae966e5664736f6c63430008180033\n}\n",
				"bytecode": {
					"linkReferences": {},
					"object": "608060405234801561000f575f80fd5b50335f806101000a81548173ffffffffffffffffffffffffffffffffffffffff021916908373ffffffffffffffffffffffffffffffffffffffff1602179055506111bf8061005c5f395ff3fe608060405234801561000f575f80fd5b5060043610610086575f3560e01c80638ab1d681116100595780638ab1d6811461010e578063e43252d71461012a578063f851a44014610146578063fe575a871461016457610086565b80631a6952301461008a5780633af32abf146100a657806344337ea1146100d6578063537df3b6146100f2575b5f80fd5b6100a4600480360381019061009f9190610cbd565b610194565b005b6100c060048036038101906100bb9190610cbd565b6103c1565b6040516100cd9190610d02565b60405180910390f35b6100f060048036038101906100eb9190610cbd565b610413565b005b61010c60048036038101906101079190610cbd565b61064f565b005b61012860048036038101906101239190610cbd565b6107ff565b005b610144600480360381019061013f9190610cbd565b6109af565b005b61014e610bea565b60405161015b9190610d2a565b60405180910390f35b61017e60048036038101906101799190610cbd565b610c0d565b60405161018b9190610d02565b60405180910390f35b3360025f8273ffffffffffffffffffffffffffffffffffffffff1673ffffffffffffffffffffffffffffffffffffffff1681526020019081526020015f205f9054906101000a900460ff161561021f576040517f08c379a000000000000000000000000000000000000000000000000000000000815260040161021690610d9d565b60405180910390fd5b8160025f8273ffffffffffffffffffffffffffffffffffffffff1673ffffffffffffffffffffffffffffffffffffffff1681526020019081526020015f205f9054906101000a900460ff16156102aa576040517f08c379a00000000000000000000000000000000000000000000000000000000081526004016102a190610d9d565b60405180910390fd5b60015f3373ffffffffffffffffffffffffffffffffffffffff1673ffffffffffffffffffffffffffffffffffffffff1681526020019081526020015f205f9054906101000a900460ff16610333576040517f08c379a000000000000000000000000000000000000000000000000000000000815260040161032a90610e05565b60405180910390fd5b60015f8473ffffffffffffffffffffffffffffffffffffffff1673ffffffffffffffffffffffffffffffffffffffff1681526020019081526020015f205f9054906101000a900460ff166103bc576040517f08c379a00000000000000000000000000000000000000000000000000000000081526004016103b390610e6d565b60405180910390fd5b505050565b5f60015f8373ffffffffffffffffffffffffffffffffffffffff1673ffffffffffffffffffffffffffffffffffffffff1681526020019081526020015f205f9054906101000a900460ff169050919050565b5f8054906101000a900473ffffffffffffffffffffffffffffffffffffffff1673ffffffffffffffffffffffffffffffffffffffff163373ffffffffffffffffffffffffffffffffffffffff16146104a0576040517f08c379a000000000000000000000000000000000000000000000000000000000815260040161049790610efb565b60405180910390fd5b60025f8273ffffffffffffffffffffffffffffffffffffffff1673ffffffffffffffffffffffffffffffffffffffff1681526020019081526020015f205f9054906101000a900460ff161561052a576040517f08c379a000000000000000000000000000000000000000000000000000000000815260040161052190610f63565b60405180910390fd5b60015f8273ffffffffffffffffffffffffffffffffffffffff1673ffffffffffffffffffffffffffffffffffffffff1681526020019081526020015f205f9054906101000a900460ff16156105b4576040517f08c379a00000000000000000000000000000000000000000000000000000000081526004016105ab90610fcb565b60405180910390fd5b600160025f8373ffffffffffffffffffffffffffffffffffffffff1673ffffffffffffffffffffffffffffffffffffffff1681526020019081526020015f205f6101000a81548160ff0219169083151502179055508073ffffffffffffffffffffffffffffffffffffffff167ff9b68063b051b82957fa193585681240904fed808db8b30fc5a2d2202c6ed62760405160405180910390a250565b5f8054906101000a900473ffffffffffffffffffffffffffffffffffffffff1673ffffffffffffffffffffffffffffffffffffffff163373ffffffffffffffffffffffffffffffffffffffff16146106dc576040517f08c379a00000000000000000000000000000000000000000000000000000000081526004016106d390610efb565b60405180910390fd5b60025f8273ffffffffffffffffffffffffffffffffffffffff1673ffffffffffffffffffffffffffffffffffffffff1681526020019081526020015f205f9054906101000a900460ff16610765576040517f08c379a000000000000000000000000000000000000000000000000000000000815260040161075c90611033565b60405180910390fd5b5f60025f8373ffffffffffffffffffffffffffffffffffffffff1673ffffffffffffffffffffffffffffffffffffffff1681526020019081526020015f205f6101000a81548160ff0219169083151502179055508073ffffffffffffffffffffffffffffffffffffffff167f2b6bf71b58b3583add364b3d9060ebf8019650f65f5be35f5464b9cb3e4ba2d460405160405180910390a250565b5f8054906101000a900473ffffffffffffffffffffffffffffffffffffffff1673ffffffffffffffffffffffffffffffffffffffff163373ffffffffffffffffffffffffffffffffffffffff161461088c576040517f08c379a000000000000000000000000000000000000000000000000000000000815260040161088390610efb565b60405180910390fd5b60015f8273ffffffffffffffffffffffffffffffffffffffff1673ffffffffffffffffffffffffffffffffffffffff1681526020019081526020015f205f9054906101000a900460ff16610915576040517f08c379a000000000000000000000000000000000000000000000000000000000815260040161090c9061109b565b60405180910390fd5b5f60015f8373ffffffffffffffffffffffffffffffffffffffff1673ffffffffffffffffffffffffffffffffffffffff1681526020019081526020015f205f6101000a81548160ff0219169083151502179055508073ffffffffffffffffffffffffffffffffffffffff167fcdd2e9b91a56913d370075169cefa1602ba36be5301664f752192bb1709df75760405160405180910390a250565b5f8054906101000a900473ffffffffffffffffffffffffffffffffffffffff1673ffffffffffffffffffffffffffffffffffffffff163373ffffffffffffffffffffffffffffffffffffffff1614610a3c576040517f08c379a0000000000000000000000000000000000000000000000000000000008152600401610a3390610efb565b60405180910390fd5b60015f8273ffffffffffffffffffffffffffffffffffffffff1673ffffffffffffffffffffffffffffffffffffffff1681526020019081526020015f205f9054906101000a900460ff1615610ac6576040517f08c379a0000000000000000000000000000000000000000000000000000000008152600401610abd90611103565b60405180910390fd5b60025f8273ffffffffffffffffffffffffffffffffffffffff1673ffffffffffffffffffffffffffffffffffffffff1681526020019081526020015f205f9054906101000a900460ff1615610b50576040517f08c379a0000000000000000000000000000000000000000000000000000000008152600401610b479061116b565b60405180910390fd5b6001805f8373ffffffffffffffffffffffffffffffffffffffff1673ffffffffffffffffffffffffffffffffffffffff1681526020019081526020015f205f6101000a81548160ff0219169083151502179055508073ffffffffffffffffffffffffffffffffffffffff167fa850ae9193f515cbae8d35e8925bd2be26627fc91bce650b8652ed254e9cab0360405160405180910390a250565b5f8054906101000a900473ffffffffffffffffffffffffffffffffffffffff1681565b5f60025f8373ffffffffffffffffffffffffffffffffffffffff1673ffffffffffffffffffffffffffffffffffffffff1681526020019081526020015f205f9054906101000a900460ff169050919050565b5f80fd5b5f73ffffffffffffffffffffffffffffffffffffffff82169050919050565b5f610c8c82610c63565b9050919050565b610c9c81610c82565b8114610ca6575f80fd5b50565b5f81359050610cb781610c93565b92915050565b5f60208284031215610cd257610cd1610c5f565b5b5f610cdf84828501610ca9565b91505092915050565b5f8115159050919050565b610cfc81610ce8565b82525050565b5f602082019050610d155f830184610cf3565b92915050565b610d2481610c82565b82525050565b5f602082019050610d3d5f830184610d1b565b92915050565b5f82825260208201905092915050565b7f4164647265737320697320626c61636b6c6973746564000000000000000000005f82015250565b5f610d87601683610d43565b9150610d9282610d53565b602082019050919050565b5f6020820190508181035f830152610db481610d7b565b9050919050565b7f53656e646572206973206e6f742077686974656c6973746564000000000000005f82015250565b5f610def601983610d43565b9150610dfa82610dbb565b602082019050919050565b5f6020820190508181035f830152610e1c81610de3565b9050919050565b7f526563697069656e74206973206e6f742077686974656c6973746564000000005f82015250565b5f610e57601c83610d43565b9150610e6282610e23565b602082019050919050565b5f6020820190508181035f830152610e8481610e4b565b9050919050565b7f4f6e6c792061646d696e2063616e20706572666f726d207468697320616374695f8201527f6f6e000000000000000000000000000000000000000000000000000000000000602082015250565b5f610ee5602283610d43565b9150610ef082610e8b565b604082019050919050565b5f6020820190508181035f830152610f1281610ed9565b9050919050565b7f4164647265737320616c726561647920696e20626c61636b6c697374000000005f82015250565b5f610f4d601c83610d43565b9150610f5882610f19565b602082019050919050565b5f6020820190508181035f830152610f7a81610f41565b9050919050565b7f4164647265737320697320696e2077686974656c6973740000000000000000005f82015250565b5f610fb5601783610d43565b9150610fc082610f81565b602082019050919050565b5f6020820190508181035f830152610fe281610fa9565b9050919050565b7f41646472657373206e6f7420696e20626c61636b6c69737400000000000000005f82015250565b5f61101d601883610d43565b915061102882610fe9565b602082019050919050565b5f6020820190508181035f83015261104a81611011565b9050919050565b7f41646472657373206e6f7420696e2077686974656c69737400000000000000005f82015250565b5f611085601883610d43565b915061109082611051565b602082019050919050565b5f6020820190508181035f8301526110b281611079565b9050919050565b7f4164647265737320616c726561647920696e2077686974656c697374000000005f82015250565b5f6110ed601c83610d43565b91506110f8826110b9565b602082019050919050565b5f6020820190508181035f83015261111a816110e1565b9050919050565b7f4164647265737320697320696e20626c61636b6c6973740000000000000000005f82015250565b5f611155601783610d43565b915061116082611121565b602082019050919050565b5f6020820190508181035f83015261118281611149565b905091905056fea264697066735822122097ef1079bd636d09f74e00c0402194ea5774b10b0ce27fcb3b8c8c91ae966e5664736f6c63430008180033",
					"opcodes": "PUSH1 0x80 PUSH1 0x40 MSTORE CALLVALUE DUP1 ISZERO PUSH2 0xF JUMPI PUSH0 DUP1 REVERT JUMPDEST POP CALLER PUSH0 DUP1 PUSH2 0x100 EXP DUP2 SLOAD DUP2 PUSH20 0xFFFFFFFFFFFFFFFFFFFFFFFFFFFFFFFFFFFFFFFF MUL NOT AND SWAP1 DUP4 PUSH20 0xFFFFFFFFFFFFFFFFFFFFFFFFFFFFFFFFFFFFFFFF AND MUL OR SWAP1 SSTORE POP PUSH2 0x11BF DUP1 PUSH2 0x5C PUSH0 CODECOPY PUSH0 RETURN INVALID PUSH1 0x80 PUSH1 0x40 MSTORE CALLVALUE DUP1 ISZERO PUSH2 0xF JUMPI PUSH0 DUP1 REVERT JUMPDEST POP PUSH1 0x4 CALLDATASIZE LT PUSH2 0x86 JUMPI PUSH0 CALLDATALOAD PUSH1 0xE0 SHR DUP1 PUSH4 0x8AB1D681 GT PUSH2 0x59 JUMPI DUP1 PUSH4 0x8AB1D681 EQ PUSH2 0x10E JUMPI DUP1 PUSH4 0xE43252D7 EQ PUSH2 0x12A JUMPI DUP1 PUSH4 0xF851A440 EQ PUSH2 0x146 JUMPI DUP1 PUSH4 0xFE575A87 EQ PUSH2 0x164 JUMPI PUSH2 0x86 JUMP JUMPDEST DUP1 PUSH4 0x1A695230 EQ PUSH2 0x8A JUMPI DUP1 PUSH4 0x3AF32ABF EQ PUSH2 0xA6 JUMPI DUP1 PUSH4 0x44337EA1 EQ PUSH2 0xD6 JUMPI DUP1 PUSH4 0x537DF3B6 EQ PUSH2 0xF2 JUMPI JUMPDEST PUSH0 DUP1 REVERT JUMPDEST PUSH2 0xA4 PUSH1 0x4 DUP1 CALLDATASIZE SUB DUP2 ADD SWAP1 PUSH2 0x9F SWAP2 SWAP1 PUSH2 0xCBD JUMP JUMPDEST PUSH2 0x194 JUMP JUMPDEST STOP JUMPDEST PUSH2 0xC0 PUSH1 0x4 DUP1 CALLDATASIZE SUB DUP2 ADD SWAP1 PUSH2 0xBB SWAP2 SWAP1 PUSH2 0xCBD JUMP JUMPDEST PUSH2 0x3C1 JUMP JUMPDEST PUSH1 0x40 MLOAD PUSH2 0xCD SWAP2 SWAP1 PUSH2 0xD02 JUMP JUMPDEST PUSH1 0x40 MLOAD DUP1 SWAP2 SUB SWAP1 RETURN JUMPDEST PUSH2 0xF0 PUSH1 0x4 DUP1 CALLDATASIZE SUB DUP2 ADD SWAP1 PUSH2 0xEB SWAP2 SWAP1 PUSH2 0xCBD JUMP JUMPDEST PUSH2 0x413 JUMP JUMPDEST STOP JUMPDEST PUSH2 0x10C PUSH1 0x4 DUP1 CALLDATASIZE SUB DUP2 ADD SWAP1 PUSH2 0x107 SWAP2 SWAP1 PUSH2 0xCBD JUMP JUMPDEST PUSH2 0x64F JUMP JUMPDEST STOP JUMPDEST PUSH2 0x128 PUSH1 0x4 DUP1 CALLDATASIZE SUB DUP2 ADD SWAP1 PUSH2 0x123 SWAP2 SWAP1 PUSH2 0xCBD JUMP JUMPDEST PUSH2 0x7FF JUMP JUMPDEST STOP JUMPDEST PUSH2 0x144 PUSH1 0x4 DUP1 CALLDATASIZE SUB DUP2 ADD SWAP1 PUSH2 0x13F SWAP2 SWAP1 PUSH2 0xCBD JUMP JUMPDEST PUSH2 0x9AF JUMP JUMPDEST STOP JUMPDEST PUSH2 0x14E PUSH2 0xBEA JUMP JUMPDEST PUSH1 0x40 MLOAD PUSH2 0x15B SWAP2 SWAP1 PUSH2 0xD2A JUMP JUMPDEST PUSH1 0x40 MLOAD DUP1 SWAP2 SUB SWAP1 RETURN JUMPDEST PUSH2 0x17E PUSH1 0x4 DUP1 CALLDATASIZE SUB DUP2 ADD SWAP1 PUSH2 0x179 SWAP2 SWAP1 PUSH2 0xCBD JUMP JUMPDEST PUSH2 0xC0D JUMP JUMPDEST PUSH1 0x40 MLOAD PUSH2 0x18B SWAP2 SWAP1 PUSH2 0xD02 JUMP JUMPDEST PUSH1 0x40 MLOAD DUP1 SWAP2 SUB SWAP1 RETURN JUMPDEST CALLER PUSH1 0x2 PUSH0 DUP3 PUSH20 0xFFFFFFFFFFFFFFFFFFFFFFFFFFFFFFFFFFFFFFFF AND PUSH20 0xFFFFFFFFFFFFFFFFFFFFFFFFFFFFFFFFFFFFFFFF AND DUP2 MSTORE PUSH1 0x20 ADD SWAP1 DUP2 MSTORE PUSH1 0x20 ADD PUSH0 KECCAK256 PUSH0 SWAP1 SLOAD SWAP1 PUSH2 0x100 EXP SWAP1 DIV PUSH1 0xFF AND ISZERO PUSH2 0x21F JUMPI PUSH1 0x40 MLOAD PUSH32 0x8C379A000000000000000000000000000000000000000000000000000000000 DUP2 MSTORE PUSH1 0x4 ADD PUSH2 0x216 SWAP1 PUSH2 0xD9D JUMP JUMPDEST PUSH1 0x40 MLOAD DUP1 SWAP2 SUB SWAP1 REVERT JUMPDEST DUP2 PUSH1 0x2 PUSH0 DUP3 PUSH20 0xFFFFFFFFFFFFFFFFFFFFFFFFFFFFFFFFFFFFFFFF AND PUSH20 0xFFFFFFFFFFFFFFFFFFFFFFFFFFFFFFFFFFFFFFFF AND DUP2 MSTORE PUSH1 0x20 ADD SWAP1 DUP2 MSTORE PUSH1 0x20 ADD PUSH0 KECCAK256 PUSH0 SWAP1 SLOAD SWAP1 PUSH2 0x100 EXP SWAP1 DIV PUSH1 0xFF AND ISZERO PUSH2 0x2AA JUMPI PUSH1 0x40 MLOAD PUSH32 0x8C379A000000000000000000000000000000000000000000000000000000000 DUP2 MSTORE PUSH1 0x4 ADD PUSH2 0x2A1 SWAP1 PUSH2 0xD9D JUMP JUMPDEST PUSH1 0x40 MLOAD DUP1 SWAP2 SUB SWAP1 REVERT JUMPDEST PUSH1 0x1 PUSH0 CALLER PUSH20 0xFFFFFFFFFFFFFFFFFFFFFFFFFFFFFFFFFFFFFFFF AND PUSH20 0xFFFFFFFFFFFFFFFFFFFFFFFFFFFFFFFFFFFFFFFF AND DUP2 MSTORE PUSH1 0x20 ADD SWAP1 DUP2 MSTORE PUSH1 0x20 ADD PUSH0 KECCAK256 PUSH0 SWAP1 SLOAD SWAP1 PUSH2 0x100 EXP SWAP1 DIV PUSH1 0xFF AND PUSH2 0x333 JUMPI PUSH1 0x40 MLOAD PUSH32 0x8C379A000000000000000000000000000000000000000000000000000000000 DUP2 MSTORE PUSH1 0x4 ADD PUSH2 0x32A SWAP1 PUSH2 0xE05 JUMP JUMPDEST PUSH1 0x40 MLOAD DUP1 SWAP2 SUB SWAP1 REVERT JUMPDEST PUSH1 0x1 PUSH0 DUP5 PUSH20 0xFFFFFFFFFFFFFFFFFFFFFFFFFFFFFFFFFFFFFFFF AND PUSH20 0xFFFFFFFFFFFFFFFFFFFFFFFFFFFFFFFFFFFFFFFF AND DUP2 MSTORE PUSH1 0x20 ADD SWAP1 DUP2 MSTORE PUSH1 0x20 ADD PUSH0 KECCAK256 PUSH0 SWAP1 SLOAD SWAP1 PUSH2 0x100 EXP SWAP1 DIV PUSH1 0xFF AND PUSH2 0x3BC JUMPI PUSH1 0x40 MLOAD PUSH32 0x8C379A000000000000000000000000000000000000000000000000000000000 DUP2 MSTORE PUSH1 0x4 ADD PUSH2 0x3B3 SWAP1 PUSH2 0xE6D JUMP JUMPDEST PUSH1 0x40 MLOAD DUP1 SWAP2 SUB SWAP1 REVERT JUMPDEST POP POP POP JUMP JUMPDEST PUSH0 PUSH1 0x1 PUSH0 DUP4 PUSH20 0xFFFFFFFFFFFFFFFFFFFFFFFFFFFFFFFFFFFFFFFF AND PUSH20 0xFFFFFFFFFFFFFFFFFFFFFFFFFFFFFFFFFFFFFFFF AND DUP2 MSTORE PUSH1 0x20 ADD SWAP1 DUP2 MSTORE PUSH1 0x20 ADD PUSH0 KECCAK256 PUSH0 SWAP1 SLOAD SWAP1 PUSH2 0x100 EXP SWAP1 DIV PUSH1 0xFF AND SWAP1 POP SWAP2 SWAP1 POP JUMP JUMPDEST PUSH0 DUP1 SLOAD SWAP1 PUSH2 0x100 EXP SWAP1 DIV PUSH20 0xFFFFFFFFFFFFFFFFFFFFFFFFFFFFFFFFFFFFFFFF AND PUSH20 0xFFFFFFFFFFFFFFFFFFFFFFFFFFFFFFFFFFFFFFFF AND CALLER PUSH20 0xFFFFFFFFFFFFFFFFFFFFFFFFFFFFFFFFFFFFFFFF AND EQ PUSH2 0x4A0 JUMPI PUSH1 0x40 MLOAD PUSH32 0x8C379A000000000000000000000000000000000000000000000000000000000 DUP2 MSTORE PUSH1 0x4 ADD PUSH2 0x497 SWAP1 PUSH2 0xEFB JUMP JUMPDEST PUSH1 0x40 MLOAD DUP1 SWAP2 SUB SWAP1 REVERT JUMPDEST PUSH1 0x2 PUSH0 DUP3 PUSH20 0xFFFFFFFFFFFFFFFFFFFFFFFFFFFFFFFFFFFFFFFF AND PUSH20 0xFFFFFFFFFFFFFFFFFFFFFFFFFFFFFFFFFFFFFFFF AND DUP2 MSTORE PUSH1 0x20 ADD SWAP1 DUP2 MSTORE PUSH1 0x20 ADD PUSH0 KECCAK256 PUSH0 SWAP1 SLOAD SWAP1 PUSH2 0x100 EXP SWAP1 DIV PUSH1 0xFF AND ISZERO PUSH2 0x52A JUMPI PUSH1 0x40 MLOAD PUSH32 0x8C379A000000000000000000000000000000000000000000000000000000000 DUP2 MSTORE PUSH1 0x4 ADD PUSH2 0x521 SWAP1 PUSH2 0xF63 JUMP JUMPDEST PUSH1 0x40 MLOAD DUP1 SWAP2 SUB SWAP1 REVERT JUMPDEST PUSH1 0x1 PUSH0 DUP3 PUSH20 0xFFFFFFFFFFFFFFFFFFFFFFFFFFFFFFFFFFFFFFFF AND PUSH20 0xFFFFFFFFFFFFFFFFFFFFFFFFFFFFFFFFFFFFFFFF AND DUP2 MSTORE PUSH1 0x20 ADD SWAP1 DUP2 MSTORE PUSH1 0x20 ADD PUSH0 KECCAK256 PUSH0 SWAP1 SLOAD SWAP1 PUSH2 0x100 EXP SWAP1 DIV PUSH1 0xFF AND ISZERO PUSH2 0x5B4 JUMPI PUSH1 0x40 MLOAD PUSH32 0x8C379A000000000000000000000000000000000000000000000000000000000 DUP2 MSTORE PUSH1 0x4 ADD PUSH2 0x5AB SWAP1 PUSH2 0xFCB JUMP JUMPDEST PUSH1 0x40 MLOAD DUP1 SWAP2 SUB SWAP1 REVERT JUMPDEST PUSH1 0x1 PUSH1 0x2 PUSH0 DUP4 PUSH20 0xFFFFFFFFFFFFFFFFFFFFFFFFFFFFFFFFFFFFFFFF AND PUSH20 0xFFFFFFFFFFFFFFFFFFFFFFFFFFFFFFFFFFFFFFFF AND DUP2 MSTORE PUSH1 0x20 ADD SWAP1 DUP2 MSTORE PUSH1 0x20 ADD PUSH0 KECCAK256 PUSH0 PUSH2 0x100 EXP DUP2 SLOAD DUP2 PUSH1 0xFF MUL NOT AND SWAP1 DUP4 ISZERO ISZERO MUL OR SWAP1 SSTORE POP DUP1 PUSH20 0xFFFFFFFFFFFFFFFFFFFFFFFFFFFFFFFFFFFFFFFF AND PUSH32 0xF9B68063B051B82957FA193585681240904FED808DB8B30FC5A2D2202C6ED627 PUSH1 0x40 MLOAD PUSH1 0x40 MLOAD DUP1 SWAP2 SUB SWAP1 LOG2 POP JUMP JUMPDEST PUSH0 DUP1 SLOAD SWAP1 PUSH2 0x100 EXP SWAP1 DIV PUSH20 0xFFFFFFFFFFFFFFFFFFFFFFFFFFFFFFFFFFFFFFFF AND PUSH20 0xFFFFFFFFFFFFFFFFFFFFFFFFFFFFFFFFFFFFFFFF AND CALLER PUSH20 0xFFFFFFFFFFFFFFFFFFFFFFFFFFFFFFFFFFFFFFFF AND EQ PUSH2 0x6DC JUMPI PUSH1 0x40 MLOAD PUSH32 0x8C379A000000000000000000000000000000000000000000000000000000000 DUP2 MSTORE PUSH1 0x4 ADD PUSH2 0x6D3 SWAP1 PUSH2 0xEFB JUMP JUMPDEST PUSH1 0x40 MLOAD DUP1 SWAP2 SUB SWAP1 REVERT JUMPDEST PUSH1 0x2 PUSH0 DUP3 PUSH20 0xFFFFFFFFFFFFFFFFFFFFFFFFFFFFFFFFFFFFFFFF AND PUSH20 0xFFFFFFFFFFFFFFFFFFFFFFFFFFFFFFFFFFFFFFFF AND DUP2 MSTORE PUSH1 0x20 ADD SWAP1 DUP2 MSTORE PUSH1 0x20 ADD PUSH0 KECCAK256 PUSH0 SWAP1 SLOAD SWAP1 PUSH2 0x100 EXP SWAP1 DIV PUSH1 0xFF AND PUSH2 0x765 JUMPI PUSH1 0x40 MLOAD PUSH32 0x8C379A000000000000000000000000000000000000000000000000000000000 DUP2 MSTORE PUSH1 0x4 ADD PUSH2 0x75C SWAP1 PUSH2 0x1033 JUMP JUMPDEST PUSH1 0x40 MLOAD DUP1 SWAP2 SUB SWAP1 REVERT JUMPDEST PUSH0 PUSH1 0x2 PUSH0 DUP4 PUSH20 0xFFFFFFFFFFFFFFFFFFFFFFFFFFFFFFFFFFFFFFFF AND PUSH20 0xFFFFFFFFFFFFFFFFFFFFFFFFFFFFFFFFFFFFFFFF AND DUP2 MSTORE PUSH1 0x20 ADD SWAP1 DUP2 MSTORE PUSH1 0x20 ADD PUSH0 KECCAK256 PUSH0 PUSH2 0x100 EXP DUP2 SLOAD DUP2 PUSH1 0xFF MUL NOT AND SWAP1 DUP4 ISZERO ISZERO MUL OR SWAP1 SSTORE POP DUP1 PUSH20 0xFFFFFFFFFFFFFFFFFFFFFFFFFFFFFFFFFFFFFFFF AND PUSH32 0x2B6BF71B58B3583ADD364B3D9060EBF8019650F65F5BE35F5464B9CB3E4BA2D4 PUSH1 0x40 MLOAD PUSH1 0x40 MLOAD DUP1 SWAP2 SUB SWAP1 LOG2 POP JUMP JUMPDEST PUSH0 DUP1 SLOAD SWAP1 PUSH2 0x100 EXP SWAP1 DIV PUSH20 0xFFFFFFFFFFFFFFFFFFFFFFFFFFFFFFFFFFFFFFFF AND PUSH20 0xFFFFFFFFFFFFFFFFFFFFFFFFFFFFFFFFFFFFFFFF AND CALLER PUSH20 0xFFFFFFFFFFFFFFFFFFFFFFFFFFFFFFFFFFFFFFFF AND EQ PUSH2 0x88C JUMPI PUSH1 0x40 MLOAD PUSH32 0x8C379A000000000000000000000000000000000000000000000000000000000 DUP2 MSTORE PUSH1 0x4 ADD PUSH2 0x883 SWAP1 PUSH2 0xEFB JUMP JUMPDEST PUSH1 0x40 MLOAD DUP1 SWAP2 SUB SWAP1 REVERT JUMPDEST PUSH1 0x1 PUSH0 DUP3 PUSH20 0xFFFFFFFFFFFFFFFFFFFFFFFFFFFFFFFFFFFFFFFF AND PUSH20 0xFFFFFFFFFFFFFFFFFFFFFFFFFFFFFFFFFFFFFFFF AND DUP2 MSTORE PUSH1 0x20 ADD SWAP1 DUP2 MSTORE PUSH1 0x20 ADD PUSH0 KECCAK256 PUSH0 SWAP1 SLOAD SWAP1 PUSH2 0x100 EXP SWAP1 DIV PUSH1 0xFF AND PUSH2 0x915 JUMPI PUSH1 0x40 MLOAD PUSH32 0x8C379A000000000000000000000000000000000000000000000000000000000 DUP2 MSTORE PUSH1 0x4 ADD PUSH2 0x90C SWAP1 PUSH2 0x109B JUMP JUMPDEST PUSH1 0x40 MLOAD DUP1 SWAP2 SUB SWAP1 REVERT JUMPDEST PUSH0 PUSH1 0x1 PUSH0 DUP4 PUSH20 0xFFFFFFFFFFFFFFFFFFFFFFFFFFFFFFFFFFFFFFFF AND PUSH20 0xFFFFFFFFFFFFFFFFFFFFFFFFFFFFFFFFFFFFFFFF AND DUP2 MSTORE PUSH1 0x20 ADD SWAP1 DUP2 MSTORE PUSH1 0x20 ADD PUSH0 KECCAK256 PUSH0 PUSH2 0x100 EXP DUP2 SLOAD DUP2 PUSH1 0xFF MUL NOT AND SWAP1 DUP4 ISZERO ISZERO MUL OR SWAP1 SSTORE POP DUP1 PUSH20 0xFFFFFFFFFFFFFFFFFFFFFFFFFFFFFFFFFFFFFFFF AND PUSH32 0xCDD2E9B91A56913D370075169CEFA1602BA36BE5301664F752192BB1709DF757 PUSH1 0x40 MLOAD PUSH1 0x40 MLOAD DUP1 SWAP2 SUB SWAP1 LOG2 POP JUMP JUMPDEST PUSH0 DUP1 SLOAD SWAP1 PUSH2 0x100 EXP SWAP1 DIV PUSH20 0xFFFFFFFFFFFFFFFFFFFFFFFFFFFFFFFFFFFFFFFF AND PUSH20 0xFFFFFFFFFFFFFFFFFFFFFFFFFFFFFFFFFFFFFFFF AND CALLER PUSH20 0xFFFFFFFFFFFFFFFFFFFFFFFFFFFFFFFFFFFFFFFF AND EQ PUSH2 0xA3C JUMPI PUSH1 0x40 MLOAD PUSH32 0x8C379A000000000000000000000000000000000000000000000000000000000 DUP2 MSTORE PUSH1 0x4 ADD PUSH2 0xA33 SWAP1 PUSH2 0xEFB JUMP JUMPDEST PUSH1 0x40 MLOAD DUP1 SWAP2 SUB SWAP1 REVERT JUMPDEST PUSH1 0x1 PUSH0 DUP3 PUSH20 0xFFFFFFFFFFFFFFFFFFFFFFFFFFFFFFFFFFFFFFFF AND PUSH20 0xFFFFFFFFFFFFFFFFFFFFFFFFFFFFFFFFFFFFFFFF AND DUP2 MSTORE PUSH1 0x20 ADD SWAP1 DUP2 MSTORE PUSH1 0x20 ADD PUSH0 KECCAK256 PUSH0 SWAP1 SLOAD SWAP1 PUSH2 0x100 EXP SWAP1 DIV PUSH1 0xFF AND ISZERO PUSH2 0xAC6 JUMPI PUSH1 0x40 MLOAD PUSH32 0x8C379A000000000000000000000000000000000000000000000000000000000 DUP2 MSTORE PUSH1 0x4 ADD PUSH2 0xABD SWAP1 PUSH2 0x1103 JUMP JUMPDEST PUSH1 0x40 MLOAD DUP1 SWAP2 SUB SWAP1 REVERT JUMPDEST PUSH1 0x2 PUSH0 DUP3 PUSH20 0xFFFFFFFFFFFFFFFFFFFFFFFFFFFFFFFFFFFFFFFF AND PUSH20 0xFFFFFFFFFFFFFFFFFFFFFFFFFFFFFFFFFFFFFFFF AND DUP2 MSTORE PUSH1 0x20 ADD SWAP1 DUP2 MSTORE PUSH1 0x20 ADD PUSH0 KECCAK256 PUSH0 SWAP1 SLOAD SWAP1 PUSH2 0x100 EXP SWAP1 DIV PUSH1 0xFF AND ISZERO PUSH2 0xB50 JUMPI PUSH1 0x40 MLOAD PUSH32 0x8C379A000000000000000000000000000000000000000000000000000000000 DUP2 MSTORE PUSH1 0x4 ADD PUSH2 0xB47 SWAP1 PUSH2 0x116B JUMP JUMPDEST PUSH1 0x40 MLOAD DUP1 SWAP2 SUB SWAP1 REVERT JUMPDEST PUSH1 0x1 DUP1 PUSH0 DUP4 PUSH20 0xFFFFFFFFFFFFFFFFFFFFFFFFFFFFFFFFFFFFFFFF AND PUSH20 0xFFFFFFFFFFFFFFFFFFFFFFFFFFFFFFFFFFFFFFFF AND DUP2 MSTORE PUSH1 0x20 ADD SWAP1 DUP2 MSTORE PUSH1 0x20 ADD PUSH0 KECCAK256 PUSH0 PUSH2 0x100 EXP DUP2 SLOAD DUP2 PUSH1 0xFF MUL NOT AND SWAP1 DUP4 ISZERO ISZERO MUL OR SWAP1 SSTORE POP DUP1 PUSH20 0xFFFFFFFFFFFFFFFFFFFFFFFFFFFFFFFFFFFFFFFF AND PUSH32 0xA850AE9193F515CBAE8D35E8925BD2BE26627FC91BCE650B8652ED254E9CAB03 PUSH1 0x40 MLOAD PUSH1 0x40 MLOAD DUP1 SWAP2 SUB SWAP1 LOG2 POP JUMP JUMPDEST PUSH0 DUP1 SLOAD SWAP1 PUSH2 0x100 EXP SWAP1 DIV PUSH20 0xFFFFFFFFFFFFFFFFFFFFFFFFFFFFFFFFFFFFFFFF AND DUP2 JUMP JUMPDEST PUSH0 PUSH1 0x2 PUSH0 DUP4 PUSH20 0xFFFFFFFFFFFFFFFFFFFFFFFFFFFFFFFFFFFFFFFF AND PUSH20 0xFFFFFFFFFFFFFFFFFFFFFFFFFFFFFFFFFFFFFFFF AND DUP2 MSTORE PUSH1 0x20 ADD SWAP1 DUP2 MSTORE PUSH1 0x20 ADD PUSH0 KECCAK256 PUSH0 SWAP1 SLOAD SWAP1 PUSH2 0x100 EXP SWAP1 DIV PUSH1 0xFF AND SWAP1 POP SWAP2 SWAP1 POP JUMP JUMPDEST PUSH0 DUP1 REVERT JUMPDEST PUSH0 PUSH20 0xFFFFFFFFFFFFFFFFFFFFFFFFFFFFFFFFFFFFFFFF DUP3 AND SWAP1 POP SWAP2 SWAP1 POP JUMP JUMPDEST PUSH0 PUSH2 0xC8C DUP3 PUSH2 0xC63 JUMP JUMPDEST SWAP1 POP SWAP2 SWAP1 POP JUMP JUMPDEST PUSH2 0xC9C DUP2 PUSH2 0xC82 JUMP JUMPDEST DUP2 EQ PUSH2 0xCA6 JUMPI PUSH0 DUP1 REVERT JUMPDEST POP JUMP JUMPDEST PUSH0 DUP2 CALLDATALOAD SWAP1 POP PUSH2 0xCB7 DUP2 PUSH2 0xC93 JUMP JUMPDEST SWAP3 SWAP2 POP POP JUMP JUMPDEST PUSH0 PUSH1 0x20 DUP3 DUP5 SUB SLT ISZERO PUSH2 0xCD2 JUMPI PUSH2 0xCD1 PUSH2 0xC5F JUMP JUMPDEST JUMPDEST PUSH0 PUSH2 0xCDF DUP5 DUP3 DUP6 ADD PUSH2 0xCA9 JUMP JUMPDEST SWAP2 POP POP SWAP3 SWAP2 POP POP JUMP JUMPDEST PUSH0 DUP2 ISZERO ISZERO SWAP1 POP SWAP2 SWAP1 POP JUMP JUMPDEST PUSH2 0xCFC DUP2 PUSH2 0xCE8 JUMP JUMPDEST DUP3 MSTORE POP POP JUMP JUMPDEST PUSH0 PUSH1 0x20 DUP3 ADD SWAP1 POP PUSH2 0xD15 PUSH0 DUP4 ADD DUP5 PUSH2 0xCF3 JUMP JUMPDEST SWAP3 SWAP2 POP POP JUMP JUMPDEST PUSH2 0xD24 DUP2 PUSH2 0xC82 JUMP JUMPDEST DUP3 MSTORE POP POP JUMP JUMPDEST PUSH0 PUSH1 0x20 DUP3 ADD SWAP1 POP PUSH2 0xD3D PUSH0 DUP4 ADD DUP5 PUSH2 0xD1B JUMP JUMPDEST SWAP3 SWAP2 POP POP JUMP JUMPDEST PUSH0 DUP3 DUP3 MSTORE PUSH1 0x20 DUP3 ADD SWAP1 POP SWAP3 SWAP2 POP POP JUMP JUMPDEST PUSH32 0x4164647265737320697320626C61636B6C697374656400000000000000000000 PUSH0 DUP3 ADD MSTORE POP JUMP JUMPDEST PUSH0 PUSH2 0xD87 PUSH1 0x16 DUP4 PUSH2 0xD43 JUMP JUMPDEST SWAP2 POP PUSH2 0xD92 DUP3 PUSH2 0xD53 JUMP JUMPDEST PUSH1 0x20 DUP3 ADD SWAP1 POP SWAP2 SWAP1 POP JUMP JUMPDEST PUSH0 PUSH1 0x20 DUP3 ADD SWAP1 POP DUP2 DUP2 SUB PUSH0 DUP4 ADD MSTORE PUSH2 0xDB4 DUP2 PUSH2 0xD7B JUMP JUMPDEST SWAP1 POP SWAP2 SWAP1 POP JUMP JUMPDEST PUSH32 0x53656E646572206973206E6F742077686974656C697374656400000000000000 PUSH0 DUP3 ADD MSTORE POP JUMP JUMPDEST PUSH0 PUSH2 0xDEF PUSH1 0x19 DUP4 PUSH2 0xD43 JUMP JUMPDEST SWAP2 POP PUSH2 0xDFA DUP3 PUSH2 0xDBB JUMP JUMPDEST PUSH1 0x20 DUP3 ADD SWAP1 POP SWAP2 SWAP1 POP JUMP JUMPDEST PUSH0 PUSH1 0x20 DUP3 ADD SWAP1 POP DUP2 DUP2 SUB PUSH0 DUP4 ADD MSTORE PUSH2 0xE1C DUP2 PUSH2 0xDE3 JUMP JUMPDEST SWAP1 POP SWAP2 SWAP1 POP JUMP JUMPDEST PUSH32 0x526563697069656E74206973206E6F742077686974656C697374656400000000 PUSH0 DUP3 ADD MSTORE POP JUMP JUMPDEST PUSH0 PUSH2 0xE57 PUSH1 0x1C DUP4 PUSH2 0xD43 JUMP JUMPDEST SWAP2 POP PUSH2 0xE62 DUP3 PUSH2 0xE23 JUMP JUMPDEST PUSH1 0x20 DUP3 ADD SWAP1 POP SWAP2 SWAP1 POP JUMP JUMPDEST PUSH0 PUSH1 0x20 DUP3 ADD SWAP1 POP DUP2 DUP2 SUB PUSH0 DUP4 ADD MSTORE PUSH2 0xE84 DUP2 PUSH2 0xE4B JUMP JUMPDEST SWAP1 POP SWAP2 SWAP1 POP JUMP JUMPDEST PUSH32 0x4F6E6C792061646D696E2063616E20706572666F726D20746869732061637469 PUSH0 DUP3 ADD MSTORE PUSH32 0x6F6E000000000000000000000000000000000000000000000000000000000000 PUSH1 0x20 DUP3 ADD MSTORE POP JUMP JUMPDEST PUSH0 PUSH2 0xEE5 PUSH1 0x22 DUP4 PUSH2 0xD43 JUMP JUMPDEST SWAP2 POP PUSH2 0xEF0 DUP3 PUSH2 0xE8B JUMP JUMPDEST PUSH1 0x40 DUP3 ADD SWAP1 POP SWAP2 SWAP1 POP JUMP JUMPDEST PUSH0 PUSH1 0x20 DUP3 ADD SWAP1 POP DUP2 DUP2 SUB PUSH0 DUP4 ADD MSTORE PUSH2 0xF12 DUP2 PUSH2 0xED9 JUMP JUMPDEST SWAP1 POP SWAP2 SWAP1 POP JUMP JUMPDEST PUSH32 0x4164647265737320616C726561647920696E20626C61636B6C69737400000000 PUSH0 DUP3 ADD MSTORE POP JUMP JUMPDEST PUSH0 PUSH2 0xF4D PUSH1 0x1C DUP4 PUSH2 0xD43 JUMP JUMPDEST SWAP2 POP PUSH2 0xF58 DUP3 PUSH2 0xF19 JUMP JUMPDEST PUSH1 0x20 DUP3 ADD SWAP1 POP SWAP2 SWAP1 POP JUMP JUMPDEST PUSH0 PUSH1 0x20 DUP3 ADD SWAP1 POP DUP2 DUP2 SUB PUSH0 DUP4 ADD MSTORE PUSH2 0xF7A DUP2 PUSH2 0xF41 JUMP JUMPDEST SWAP1 POP SWAP2 SWAP1 POP JUMP JUMPDEST PUSH32 0x4164647265737320697320696E2077686974656C697374000000000000000000 PUSH0 DUP3 ADD MSTORE POP JUMP JUMPDEST PUSH0 PUSH2 0xFB5 PUSH1 0x17 DUP4 PUSH2 0xD43 JUMP JUMPDEST SWAP2 POP PUSH2 0xFC0 DUP3 PUSH2 0xF81 JUMP JUMPDEST PUSH1 0x20 DUP3 ADD SWAP1 POP SWAP2 SWAP1 POP JUMP JUMPDEST PUSH0 PUSH1 0x20 DUP3 ADD SWAP1 POP DUP2 DUP2 SUB PUSH0 DUP4 ADD MSTORE PUSH2 0xFE2 DUP2 PUSH2 0xFA9 JUMP JUMPDEST SWAP1 POP SWAP2 SWAP1 POP JUMP JUMPDEST PUSH32 0x41646472657373206E6F7420696E20626C61636B6C6973740000000000000000 PUSH0 DUP3 ADD MSTORE POP JUMP JUMPDEST PUSH0 PUSH2 0x101D PUSH1 0x18 DUP4 PUSH2 0xD43 JUMP JUMPDEST SWAP2 POP PUSH2 0x1028 DUP3 PUSH2 0xFE9 JUMP JUMPDEST PUSH1 0x20 DUP3 ADD SWAP1 POP SWAP2 SWAP1 POP JUMP JUMPDEST PUSH0 PUSH1 0x20 DUP3 ADD SWAP1 POP DUP2 DUP2 SUB PUSH0 DUP4 ADD MSTORE PUSH2 0x104A DUP2 PUSH2 0x1011 JUMP JUMPDEST SWAP1 POP SWAP2 SWAP1 POP JUMP JUMPDEST PUSH32 0x41646472657373206E6F7420696E2077686974656C6973740000000000000000 PUSH0 DUP3 ADD MSTORE POP JUMP JUMPDEST PUSH0 PUSH2 0x1085 PUSH1 0x18 DUP4 PUSH2 0xD43 JUMP JUMPDEST SWAP2 POP PUSH2 0x1090 DUP3 PUSH2 0x1051 JUMP JUMPDEST PUSH1 0x20 DUP3 ADD SWAP1 POP SWAP2 SWAP1 POP JUMP JUMPDEST PUSH0 PUSH1 0x20 DUP3 ADD SWAP1 POP DUP2 DUP2 SUB PUSH0 DUP4 ADD MSTORE PUSH2 0x10B2 DUP2 PUSH2 0x1079 JUMP JUMPDEST SWAP1 POP SWAP2 SWAP1 POP JUMP JUMPDEST PUSH32 0x4164647265737320616C726561647920696E2077686974656C69737400000000 PUSH0 DUP3 ADD MSTORE POP JUMP JUMPDEST PUSH0 PUSH2 0x10ED PUSH1 0x1C DUP4 PUSH2 0xD43 JUMP JUMPDEST SWAP2 POP PUSH2 0x10F8 DUP3 PUSH2 0x10B9 JUMP JUMPDEST PUSH1 0x20 DUP3 ADD SWAP1 POP SWAP2 SWAP1 POP JUMP JUMPDEST PUSH0 PUSH1 0x20 DUP3 ADD SWAP1 POP DUP2 DUP2 SUB PUSH0 DUP4 ADD MSTORE PUSH2 0x111A DUP2 PUSH2 0x10E1 JUMP JUMPDEST SWAP1 POP SWAP2 SWAP1 POP JUMP JUMPDEST PUSH32 0x4164647265737320697320696E20626C61636B6C697374000000000000000000 PUSH0 DUP3 ADD MSTORE POP JUMP JUMPDEST PUSH0 PUSH2 0x1155 PUSH1 0x17 DUP4 PUSH2 0xD43 JUMP JUMPDEST SWAP2 POP PUSH2 0x1160 DUP3 PUSH2 0x1121 JUMP JUMPDEST PUSH1 0x20 DUP3 ADD SWAP1 POP SWAP2 SWAP1 POP JUMP JUMPDEST PUSH0 PUSH1 0x20 DUP3 ADD SWAP1 POP DUP2 DUP2 SUB PUSH0 DUP4 ADD MSTORE PUSH2 0x1182 DUP2 PUSH2 0x1149 JUMP JUMPDEST SWAP1 POP SWAP2 SWAP1 POP JUMP INVALID LOG2 PUSH5 0x6970667358 0x22 SLT KECCAK256 SWAP8 0xEF LT PUSH26 0xBD636D09F74E00C0402194EA5774B10B0CE27FCB3B8C8C91AE96 PUSH15 0x5664736F6C63430008180033000000 "
				},
				"gasEstimates": {
					"creation": {
						"codeDepositCost": "908600",
						"executionCost": "25205",
						"totalCost": "933805"
					},
					"external": {
						"addToBlacklist(address)": "32661",
						"addToWhitelist(address)": "32638",
						"admin()": "2549",
						"isBlacklisted(address)": "2936",
						"isWhitelisted(address)": "2893",
						"removeFromBlacklist(address)": "30436",
						"removeFromWhitelist(address)": "30369",
						"transfer(address)": "9702"
					}
				},
				"methodIdentifiers": {
					"addToBlacklist(address)": "44337ea1",
					"addToWhitelist(address)": "e43252d7",
					"admin()": "f851a440",
					"isBlacklisted(address)": "fe575a87",
					"isWhitelisted(address)": "3af32abf",
					"removeFromBlacklist(address)": "537df3b6",
					"removeFromWhitelist(address)": "8ab1d681",
					"transfer(address)": "1a695230"
				}
			},
			"storageLayout": {
				"storage": [
					{
						"astId": 19,
						"contract": "ERC3643WhitelistBlacklist.sol:ERC3643WhitelistBlacklist",
						"label": "admin",
						"offset": 0,
						"slot": "0",
						"type": "t_address"
					},
					{
						"astId": 23,
						"contract": "ERC3643WhitelistBlacklist.sol:ERC3643WhitelistBlacklist",
						"label": "whitelist",
						"offset": 0,
						"slot": "1",
						"type": "t_mapping(t_address,t_bool)"
					},
					{
						"astId": 27,
						"contract": "ERC3643WhitelistBlacklist.sol:ERC3643WhitelistBlacklist",
						"label": "blacklist",
						"offset": 0,
						"slot": "2",
						"type": "t_mapping(t_address,t_bool)"
					}
				],
				"types": {
					"t_address": {
						"encoding": "inplace",
						"label": "address",
						"numberOfBytes": "20"
					},
					"t_bool": {
						"encoding": "inplace",
						"label": "bool",
						"numberOfBytes": "1"
					},
					"t_mapping(t_address,t_bool)": {
						"encoding": "mapping",
						"key": "t_address",
						"label": "mapping(address => bool)",
						"numberOfBytes": "32",
						"value": "t_bool"
					}
				}
			},
			"userdoc": {
				"kind": "user",
				"methods": {},
				"version": 1
			}
		}
	}
}